:020000040800F2
:10000000300E0020C1010008A54A0008E74400089E
:10001000A14A00086309000881540008000000009C
:10002000000000000000000000000000A94A0008D5
:100030009B23000800000000A74A0008DD4A0008D2
:10004000DB010008DB010008DB010008DB01000820
:10005000DB010008DB010008DB010008DB01000810
:10006000DB010008DB010008DB010008DB01000800
:1000700051220008DB010008DB010008DB01000859
:10008000DB01000861220008DB0100087909000893
:1000900069090008DB010008DB010008DB0100083A
:1000A000DB010008DB010008DB010008DB010008C0
:1000B000DB010008254C0008DB010008DB0100081B
:1000C000DB010008DB010008DB010008DB010008A0
:1000D000DB010008395400084D5400085D54000845
:1000E000DB010008DB010008DB010008DB01000880
:1000F000DB010008DB010008DB010008DB01000870
:10010000DB010008DB010008DB010008DB0100085F
:10011000DB010008DB010008DB010008DB0100084F
:10012000DB0100087122000881220008DB010008C1
:10013000DB010008DB010008DB0100089909000869
:1001400089090008DB010008DB010008DB01000869
:10015000DB010008DB010008DB0100087154000826
:10016000DB010008DB010008DB010008DB010008FF
:10017000DB010008DB010008DB01000800000000D3
:10018000DB010008DB010008DB010008DB010008DF
:10019000DB010008DB010008DB010008DB010008CF
:1001A0000000000000000000DB010008DFF80CD0B8
:1001B00000F0A8FB0048004751610008300E002005
:1001C0000648804706480047FEE7FEE7FEE7FEE7F1
:1001D000FEE7FEE7FEE7FEE7FEE7FEE7994B0008D5
:1001E000AD0100082DE9F05F0546002092469B46D0
:1001F00088460646814640241BE02846414647463D
:10020000224600F078FA53465A46C01A914110D35C
:1002100011461846224600F05FFA2D1A67EB0108D6
:100220004F4622460120002100F056FA17EB000944
:100230004E41201EA4F10104DFDC484631462A4627
:100240004346BDE8F09F40EA01039B0703D009E065
:1002500008C9121F08C0042AFAD203E011F8013BB2
:1002600000F8013B521EF9D27047D2B201E000F80B
:10027000012B491EFBD270470022F6E710B513464A
:100280000A4604461946FFF7F0FF204610BD2DE947
:10029000FE4F804681EA0300C00F0C46009021F01B
:1002A000004123F00045B8EB0200A94105D24046C9
:1002B000214690461C460B46024623F00040104360
:1002C00047D0270DC7F30A00C3F30A510290401A22
:1002D000019040286BDAC3F3130040F4801B0098B0
:1002E000924620B10023D2EB030A63EB0B0B01987B
:1002F0005946C0F14002504600F0EEF906460D4660
:1003000050465946019A00F006FA10EB0800614188
:10031000002487EA115284EAE7731A4340D0009A16
:1003200062B3019A012A4FEA075215DC001B61EB08
:1003300002014FF0004202EA0752CDE90042001CE0
:1003400041F5801132462B4600F03DFA03B0BDE87E
:10035000F08F40462146F9E7001B61EB0201001CCB
:1003600041F5801300185B412018A2F5001747EBF8
:10037000030140EAD570B6196D4111E06D084FEAEE
:10038000360645EAC0754FEA0752001B61EB0201D1
:10039000001C41F5801149084FEA30000019514115
:1003A00032462B4603B0BDE8F04F00F0FDB900988F
:1003B000012240000023D0EB020263EBE0730098BF
:1003C00021464FEAE074B8EB000061EB0401E9E775
:1003D00083F000435BE781F0004158E72DE9FE4FD1
:1003E00081EA030404F0004421F0004100944FF03E
:1003F000000B23F0004350EA01045ED052EA0304EC
:100400005BD0C3F30A54C1F30A552C44A4F2F3346D
:100410000194A0FB0254C1F3130141F48011C3F312
:10042000130343F4801301FB024400FB034E840AD0
:10043000970A44EA815447EA8357A4FB0768029568
:100440008D0A05FB07854FEA932C04FB0C54270506
:10045000029D4FEA065847EA1637B5EB08056EEBE2
:10046000070C870E920E47EA811742EA8312A7FB18
:100470000201B6EB0B0164EB00042B0D43EA0C33D5
:100480005E1844EB1C50DA465146E7FB0201C5F307
:1004900013044FEA0B3343EA14534FEA0432019C2E
:1004A00043EA0603A4F10C040294009CCDE900B4D5
:1004B00000F089F903B0BDE8F08F00200146F9E7AC
:1004C0002DE9F04D81EA030404F0004B21F00045D2
:1004D00014464FF0000A23F0004150EA050220D0F4
:1004E00054EA01021DD0C5F30A570246C5F31303AF
:1004F000C1F31300C1F30A5640F4801543F480138E
:10050000A7EB0608101BD64608F2FD3873EB050072
:1005100002D308F1010801E092185B41B8F1000F25
:1005200003DA00200146BDE8F08D00204FF4801171
:10053000064684460EE0171B73EB050705D3121B16
:1005400063EB050306434CEA010C49084FEA30000F
:1005500092185B4150EA0107EDD152EA030012D034
:1005600082EA040083EA0501084305D0101BAB4171
:1005700006D20122002306E000224FF0004302E0F1
:100580006FF0010253101AEB06004CEB085110EB10
:100590000A0041EB0B01BDE8F04D00F005B90EB5C6
:1005A000C10F80EAE0700844CA07002140F23343DB
:1005B0008DE80E000A460B4600F005F903B000BDB9
:1005C0000EB540F2334102910021CDE900110A46F7
:1005D0000B4600F0F8F803B000BD70B5C1F30A5245
:1005E00001F000450024C1F3130140F2FF3341F450
:1005F00080119A4201DA002070BD40F233439A42E2
:10060000A2F2334203DC524200F075F800E0904061
:100610002C43F1D0404270BD00F0004230F0004069
:100620000AD0C10D01F56071C0F3160042EA015114
:10063000C208400711437047002001467047000080
:1006400030B5041E71F1000404DB4FF00044404259
:1006500064EB0101141E73F1000405DB1C464FF02E
:100660000043524263EB04038B4208BF824230BD19
:1006700030B5041E71F1000404DB4FF00044404229
:1006800064EB0101141E73F1000405DB1C464FF0FE
:100690000043524263EB0403994208BF904230BDCD
:1006A00001F0004330B421F0004150EA010206D0CD
:1006B0000A0DA2F56072C1F31301002A02DC30BCFE
:1006C00000207047440F44EAC104C100E01830BC68
:1006D00000EBC25000F031B8202A04DB203A00FAC7
:1006E00002F1002070479140C2F1200320FA03F389
:1006F000194390407047202A04DB203A21FA02F087
:100700000021704721FA02F3D040C2F1200291404B
:10071000084319467047202A06DBCB17203A41FAD6
:1007200002F043EAE07306E041FA02F3D040C2F17E
:10073000200291400843194670470029A8BF70471E
:10074000401C490008BF20F00100704710B4B0FA07
:1007500080FC00FA0CF050EA010404BF10BC7047A2
:1007600049B1CCF1200421FA04F411FA0CF118BFBC
:10077000012121430843A3EB0C01CB1D4FEA00618B
:100780004FEA102042BF002010BC704700EBC3505E
:1007900010440029A4BF10BC7047401C490008BF8A
:1007A00020F0010010BC704710B5141E73F1000456
:1007B00008DA401C41F1000192185B411A4301D153
:1007C00020F0010010BD2DE9F04D92469B4611B17D
:1007D000B1FA81F202E0B0FA80F220329046FFF7DF
:1007E0007BFF04460F4640EA0A0041EA0B015346EC
:1007F0005A46084313D0114653EA010019D0C8F1F4
:1008000040025046FFF777FF05460E4650465946D0
:100810004246FFF761FF084305D0012004E020466F
:100820003946BDE8F08D0020054346EAE0762C43CA
:1008300037430A986305E40AA0EB08000022FD0A8A
:1008400044EA47540A3002D500200146E9E7010591
:1008500010196941DDE9084500196941BDE8F04D0D
:10086000A2E72DE9F04D00231A461B1A8A4103DB4B
:1008700000200146BDE8F08DC1F30A52C1F3130117
:1008800041F480154FF0000BD10702D100186D41E3
:10089000521E0027044640F2FF11384601EB620A5F
:1008A0003E468046024600204FF48011FFF723FFAA
:1008B000C2197141BB1846EB0100B4EB030C75EB98
:1008C000000C04D3E41A65EB000517460E46241904
:1008D00008F101006D4180463428E3DDF91946EB4B
:1008E0000600091BA84103D24FF0FF32134601E076
:1008F000002213461BEB070046EB0A51BDE8F04D02
:10090000FFF752BF064C074D06E0E06840F00103D8
:1009100094E8070098471034AC42F6D3FFF74AFC3E
:10092000306800085068000830B58C1810F8012BAA
:1009300012F00F0301D110F8013B120906D110F893
:10094000012B03E010F8015B01F8015B5B1EF9D19C
:1009500001E001F8013B521EFBD1A142E6D3002089
:1009600030BD00BFFEE7000010B5024801F065FF92
:1009700010BD00005001002010B5024801F05DFFDD
:1009800010BD00005001002010B5024801F055FFD5
:1009900010BD00007801002010B5024801F04DFFA5
:1009A00010BD00007801002000B589B0042003903C
:1009B0000020059006900820079020484089000AF2
:1009C0008DF804001D48807A8DF805001C480088C9
:1009D000000A8DF806001A4800788DF807001948BB
:1009E000D0F8020000EE100ABCEEC00A10EE100AA9
:1009F000000A8DF808001348D0F8020000EE100A33
:100A0000BCEEC00A10EE100AC0B28DF809000E4804
:100A10000089000A8DF80A000B48007A8DF80B0057
:100A2000012301AA03A9094801F00BFD0848008829
:100A3000401C0749088009B000BD00003F050020A8
:100A400042000020330000205D05002078010020D6
:100A5000140000202DE9F0472DED0C8B06460F46C3
:100A600000249FED7B0A10EE108A9FED790A10EEAC
:100A7000109A9FED770A10EE105A00EE106AB8EE49
:100A8000C00A744880ED000A00EE107AB8EEC00A81
:100A9000714880ED000A01F082FC044600EE104A25
:100AA000B8EEC00AB1EE400A9FED6C1AC0EE010A22
:100AB0009FED6B0A20EE800A10EE105A694890ED07
:100AC000000A6948D0ED000A30EE200A10EE108AC4
:100AD000664890ED000A6648D0ED000A30EE200A24
:100AE00010EE109A2846FFF797FD41EC1D0BB0EE73
:100AF0004D0AF0EE6D0A04F0A3FDB0EE40BAF0EE40
:100B000060BA4846FFF788FD41EC1C0B53EC1B2BE9
:100B1000FFF764FC41EC190B2846FFF77DFD41EC23
:100B20001D0BB0EE4D0AF0EE6D0A04F019FDB0EEAB
:100B300040BAF0EE60BA4046FFF76EFD41EC1C0B88
:100B400053EC1B2BFFF74AFC41EC1A0B53EC192B0F
:100B5000FFF73EFC41EC180BFFF7A2FD454908608A
:100B60002846FFF759FD41EC1D0BB0EE4D0AF0EEA3
:100B70006D0A04F0F5FCB0EE40BAF0EE60BA4846FB
:100B8000FFF74AFD41EC1C0B53EC1B2BFFF726FC37
:100B900041EC190B2846FFF73FFD41EC1D0BB0EE71
:100BA0004D0AF0EE6D0A04F04BFDB0EE40BAF0EEE7
:100BB00060BA4046FFF730FD41EC1C0B53EC1B2B99
:100BC000FFF70CFC41EC1A0B53EC192BFFF75FFB02
:100BD00041EC180BFFF764FD27490860274800889F
:100BE00020B101280DD002282CD11BE04FF67C400B
:100BF0002349088000202349087001201F490880EC
:100C000020E04FF47C401E49088000201D490870F8
:100C100014F52F7F05DA02201849088001201949B0
:100C200008700FE04FF480601549088000201549D6
:100C30000870B4F52F7F04DD0120104908801149A8
:100C4000087000BF00BFBDEC0C8BBDE8F087000052
:100C5000000000008C000020CC00002000000046B6
:100C6000560EC940B8000020B4000020BC0000208F
:100C7000C0000020D4000020D80000201201002075
:100C800016010020140100209FED0A0A0A4880ED99
:100C9000000A9FED080A094880ED000A9FED050A49
:100CA000074880ED000A9FED030A064880ED000A20
:100CB000704700000000000094000020D4000020D5
:100CC000D8000020DC00002010B50D48807C00F02A
:100CD000010020B10A48807CC0F3401018B9002000
:100CE000084908700BE0012007490870032140F60D
:100CF000B83000F0F7FA42F2283000F02FFF10BDB4
:100D0000DA040020D0000020D100002010B52548D2
:100D10000078012804D12449087000202149087076
:100D20002248007820B1012805D0042837D133E0CB
:100D300000F015FF33E01E48408AC0F3402010B990
:100D400001201C4908701A48408AC0F3402098B11D
:100D50001848007801280FD100201649087016485D
:100D60000078401C14490870087800EBD0714910D5
:100D7000A0EB4101104A11700F48007840B10120EA
:100D800009490870962142F22830FFF763FE02E01D
:100D900000200649087000BFFFF796FF00BF00BFA4
:100DA00010BD000010010020D1000020D000002064
:100DB000DA040020000100200101002000B52DED23
:100DC000108B85B0B7EE000AB0EE408AFE48407A3C
:100DD000022803D10120FD49087002E00020FB49F0
:100DE00008709FEDFB0AFB4880ED000A9FEDFA0AB0
:100DF000FA4880ED000A9FEDFA0AFA4880ED000AF1
:100E0000F248007800287CD1EF48B0F9000000EBF0
:100E10008000400000EE900AF8EEE00AB0EE600AB2
:100E2000F04890ED001AD0ED000AF1EE600A05F0EE
:100E3000E0F8ED4880ED000A0068FFF7EDFB41ECBB
:100E40001A0BB0EE4A0AF0EE6A0A04F0EDFBB0EEBF
:100E5000409AF0EE609A9FEDE50B53EC102B51ECAD
:100E6000190BFFF705FC79D2DE4890ED000A20EE61
:100E7000000A10EE101A0846FFF7CEFB41EC190BE2
:100E8000D9480068FFF7C8FB41EC1F0BB0EE4F0AD2
:100E9000F0EE6F0A04F0C8FBB0EE40DAF0EE60DA74
:100EA000D0480068FFF7B8FB41EC1E0B53EC1D2B3C
:100EB000FFF78EFA41EC1C0B9FEDCE0B53EC102B81
:100EC000FFF7E5F941EC1B0BC7480068FFF7A4FBEF
:100ED00041EC1F0BB0EE4F0AF0EE6F0A04F0A4FBDA
:100EE000B0EE40DAF0EE60DABE480068FFF794FB3F
:100EF00041EC1E0B53EC1D2BFFF76AFA41EC1C0B67
:100F000000E070E09FEDBB0B53EC102BFFF7BFF937
:100F100053EC1B2BCDE900019DED000B51EC100BA8
:100F2000FFF75CFA41EC1A0B53EC192BFFF7C8FAE8
:100F3000CDE902019DED020B51EC100BFFF7B0FB68
:100F400008EE100AB7EE001ADFEDAC0AB0EE480A60
:100F500005F04FF8B0EE408A04E0FFE7B7EE000A74
:100F6000B0EE408A9D48D0ED001A61EE881AB0EECE
:100F7000611AD0ED001AF1EE611A61EE881AF0EEF6
:100F8000610A9148B0F90600C0EBC000400001EED4
:100F9000900AF8EEE11AB0EE610A05F02AF89848D6
:100FA00080ED000A8D48D0ED001A61EE881AB0EE8F
:100FB000611AD0ED001AF1EE611A61EE881AF0EEB6
:100FC000610A8148B0F90400C0EBC000400001EEA6
:100FD000900AF8EEE11AB0EE610A05F00AF88948C5
:100FE00080ED000AEBE0794800780128FAD18648C4
:100FF000B0F9000085490880854890ED000A084650
:10100000B0F9000001F02EF8774880ED000A006882
:10101000FFF702FB41EC1A0BB0EE4A0AF0EE6A0A47
:1010200004F002FBB0EE409AF0EE609A9FED6F0B79
:1010300053EC102B51EC190BFFF71AFB77D26948D0
:1010400090ED000A20EE000A10EE101A0846FFF795
:10105000E3FA41EC190B64480068FFF7DDFA41EC54
:101060001F0BB0EE4F0AF0EE6F0A04F0DDFAB0EE9F
:1010700040DAF0EE60DA5B480068FFF7CDFA41EC49
:101080001E0B53EC1D2BFFF7A3F941EC1C0B9FED3E
:10109000590B53EC102BFFF7FAF841EC1A0B52489E
:1010A0000068FFF7B9FA41EC1F0BB0EE4F0AF0EE03
:1010B0006F0A04F0B9FAB0EE40DAF0EE60DA4948AF
:1010C0000068FFF7A9FA41EC1E0B53EC1D2BFFF74C
:1010D0007FF941EC1C0B9FED470B53EC102BFFF7F6
:1010E000D6F841EC1B0B53EC1A2BFFF777F953ECB6
:1010F000192BCDE900019DED000B51EC100BFFF712
:10110000DFF9CDE902019DED020B51EC100BFFF769
:10111000C7FA08EE100AB7EE001ADFED380AB0EE93
:10112000480A04F066FFB0EE408A04E0FFE7B7EE3D
:10113000000AB0EE408A2948D0ED001A61EE881A04
:10114000B0EE611AD0ED001AF1EE611A61EE881A64
:10115000F0EE610A1C48B0F9060001EE900AF8EEC4
:10116000E11A2C4890ED002A61EE821AB0EE610A75
:1011700004F03FFF224880ED000A1848D0ED001A25
:1011800061EE881AB0EE611AD0ED001AF1EE611A24
:1011900061EE881AF0EE610A0B48B0F9040001EE26
:1011A000900AF8EEE11A1B4890ED002A61EE821ACF
:1011B000B0EE610A04F01DFF124880ED000A05B090
:1011C000BDEC108B00BD0000DA040020D10000202F
:1011D0000000A042CC0000200000FA45840000205E
:1011E00000409C458C000020DC0000200000000036
:1011F00000003440000000000000894000000000B2
:10120000D4000020D8000020EA000020E8000020E0
:10121000A00000209C0000202DE9F0412DED0A8B5C
:1012200005460C4616461F469FED2B0AB0EE408A37
:10123000B4F90000FFF7B3F941EC1C0B9FED270B4D
:1012400053EC102BFFF7CAF841EC1B0BB0EE4B0A26
:10125000F0EE6B0A04F058FAB0EE40AAF0EE60AA85
:101260009FED1E0B53EC102B51EC1A0BFFF7B6F849
:1012700041EC190BFFF714FA08EE100A012D0BD1FF
:10128000B7EE000AB4EEC08AF1EE10FA13D220884D
:10129000304400B220800EE0B5EEC08AF1EE10FAC4
:1012A00009DD2088C01B00B22080B4F900000028AE
:1012B00001DA00202080B7EE001ADFED070AB0EE59
:1012C000480A04F096FEB0EE408AB0EE480ABDEC43
:1012D0000A8BBDE8F0810000000000003333333397
:1012E0003333C33F70B52DED088B04460D46B7EE82
:1012F000000AB0EE408A00EE104AB8EEC00AFE487E
:1013000080ED000AFD490D80FD48007800287CD161
:10131000FC48807C00F0010000B30020FA490880FE
:101320002046FFF73CF941EC1B0B9FEDF80B53EC0B
:10133000102BFFF7C5F841EC190BF6480068FFF7D2
:101340006BF941EC1A0B53EC192BFFF779F903D227
:101350000120F149088001E0EF490D80E948807CD7
:10136000C0F3400000B30020EC4908806042FFF762
:1013700016F941EC1B0B9FEDE50B53EC102BFFF71F
:101380009FF841EC190BE3480068FFF745F941EC81
:101390001A0B53EC192BFFF76BF903D20120DE492E
:1013A000088001E0DC490D80D648807CC0F3C00095
:1013B00010B10020DA490880D248807CC0F3800058
:1013C00010B10020D7490880CE48807CC0F380103F
:1013D00010B10020D4490880CA48807CC0F3C010F6
:1013E00010B10020D1490880C649897C01F0010074
:1013F0000323C94909880AB2C849FFF70DFFBE484F
:10140000D0ED000A20EE200A00E0FDE0BDEEC00AAB
:1014100010EE100A00B200EE100AB8EEC00AC4487E
:1014200080ED000AB749897CC1F340000323BA4923
:1014300009880AB2B449FFF7EFFEAF48D0ED000AC1
:10144000F1EE600A20EE200ABDEEC00A10EE100A8E
:1014500000B200EE100AB8EEC00AB64880ED000AED
:10146000A6480088FFF7ACF841EC1A0B9FEDB20BD1
:1014700053EC102BFFF724F841EC190BFFF7ADF8F4
:1014800006B2A049897CC1F3800003233246A449F7
:10149000FFF7C2FE9848D0ED000AF1EE600A20EE98
:1014A000200ABDEEC00A10EE100A00B200EE100ACB
:1014B000B8EEC00AA24880ED000A90480088FFF705
:1014C0007FF841EC1A0B9FED9C0B53EC102BFEF7B1
:1014D000F7FF41EC190BFFF780F806B28949897CC8
:1014E000C1F3C000032332468E49FFF795FE8248C0
:1014F000D0ED000A20EE200ABDEEC00A10EE100A60
:1015000000B200EE100AB8EEC00A8E4880ED000A64
:101510007A480088FFF754F841EC1A0B9FED860BD0
:1015200053EC102BFEF7CCFF41EC190BFFF755F8ED
:1015300006B27449897CC1F38010032332467B498B
:10154000FFF76AFEDFED800A20EE200ABDEEC00A3A
:1015500010EE100A00B200EE100AB8EEC00A7B4886
:1015600080ED000A65480088FFF72AF841EC1A0B65
:101570009FED710B53EC102BFEF7A2FF41EC190B02
:10158000FFF72BF806B25F49897CC1F3C010032333
:1015900032466549FFF740FEDFED6D0A20EE200A76
:1015A000BDEEC00A10EE100A00B200EE100AB8EE4E
:1015B000C00A684880ED000A5E4890ED000A5C4869
:1015C000D0ED000A30EE200A20EE080A514880EDE6
:1015D000000A5B4890ED000A5A48D0ED000A30EE50
:1015E000200A20EE080A5C4880ED000A574890ED7A
:1015F000000A5848D0ED000A30EE200A20EE080A12
:10160000564880ED000A48E13E48807C00F0010029
:1016100010B100203C4908803A48807CC0F340006B
:1016200010B100203D4908803648807CC0F380001E
:1016300010B100203B4908803248807CC0F3C000D4
:1016400010B10020364908802E49897C01F0010044
:1016500003232A4909880AB23049FFF7DDFD2648ED
:10166000D0ED000A20EE200ABDEEC00A10EE100AEE
:1016700000B200EE100AB8EEC00A2D4880ED000A54
:101680002049897CC1F3400003231C4909880AB220
:101690001D49FFF7C1FD1848D0ED000AF1EE600AC0
:1016A00020EE200ABDEEC00A10EE100A00B200EED5
:1016B000100AB8EEC00A1F4880ED000A1149897C63
:1016C000C1F3800003230D4909880AB21549FFF7C9
:1016D000A3FD0948D0ED000AF1EE600A20EE200AD1
:1016E000BDEEC00A10EE100A00B200EE100AB8EE0D
:1016F000C00A134834E0000084000020A400002049
:10170000D0000020DA040020AA0000200000000021
:1017100000000440D4000020A6000020A800002003
:10172000AC000020AE000020B0000020B20000207D
:10173000B4000020B8000020000000000000F83FC6
:10174000BC000020C000002000409CC5C400002058
:1017500000409C45C8000020D8000020DC0000208C
:1017600080ED000A4E49897CC1F3C00003234D4936
:1017700009880AB24C49FFF74FFD4C48D0ED000AEA
:1017800020EE200ABDEEC00A10EE100A00B200EEF4
:10179000100AB8EEC00A464880ED000A41480088A9
:1017A000FEF70EFF41EC1A0B1FED1D0B53EC102B37
:1017B000FEF786FE41EC190BFEF70FFF06B2384923
:1017C000897CC1F38010032332463A49FFF724FD98
:1017D0005FED230A20EE200ABDEEC00A10EE100ACB
:1017E00000B200EE100AB8EEC00A334880ED000ADD
:1017F0002C480088FEF7E4FE41EC1A0B1FED320B7B
:1018000053EC102BFEF75CFE41EC190BFEF7E5FEE6
:1018100006B22349897CC1F3C0100323324627490D
:10182000FFF7FAFC5FED360A20EE200ABDEEC00A93
:1018300010EE100A00B200EE100AB8EEC00A2048FE
:1018400080ED000A1F480078012826D01E4890ED40
:10185000000A1E48D0ED000A30EE200A20EE080AE9
:101860001B4880ED000A1B4890ED000A1048D0ED9F
:10187000000A30EE200A20EE080A174880ED000A20
:101880000D4890ED000A0E48D0ED000A30EE200A17
:1018900020EE080A114880ED000ABDEC088B70BDEF
:1018A000DA040020A4000020AC0000208400002006
:1018B000C0000020B2000020C4000020B0000020C2
:1018C000C8000020D0000020B8000020B400002094
:1018D000D4000020BC000020D8000020DC00002044
:1018E00010B5002000F00AF8012000F007F80220EF
:1018F00000F004F8032000F001F810BD10B52DED44
:10190000028B0446854800EB8400D0ED000A844831
:1019100030F9140000EE100AB8EEC00A30EEC00A2A
:10192000804800EB840080ED000A7F4800EB8400D3
:1019300090ED000A7B4800EB8400D0ED000A30EE09
:10194000200A794800EB840080ED000A754800EB1E
:10195000840090ED000A04EB4400744901EB800020
:10196000D0ED000A20EE200A714800EB840080EDE3
:10197000000A6D4800EB840090ED000A04EB44007F
:1019800001EB8000D0ED010A20EE200ADFED690AAC
:1019900020EE200A684800EB840080ED000A6648CB
:1019A00000EB8400D0ED000AB0EE600A9FED631AF0
:1019B000DFED630A04F01DFB5F4800EB840080ED5F
:1019C000000A584800EB840090ED000A5D4800EBE7
:1019D000840080ED000A5B4800EB840090ED000A73
:1019E000594800EB8400D0ED000A30EE600A04EBA9
:1019F00044004E4901EB8000D0ED020A20EE200A9F
:101A0000524800EB840080ED000A4E4800EB840051
:101A100090ED000A4C4800EB840080ED000A444839
:101A200000EB840090ED000A434800EB8400D0ED09
:101A3000000A20EE200AB5EEC00AF1EE10FA33D209
:101A400004EB440001EB800090ED010A9FED3B1A8E
:101A5000C1EE000AB1EE040A80EE801AB0EE418AAF
:101A600004EB440001EB8000D0ED010A9FED331A36
:101A700081EE200AF1EE040A80EE201AB1EE410A4E
:101A8000F0EE408A284800EB8400D0ED000AB0EE6A
:101A9000600AB0EE481AF0EE680A04F0AAFA22488A
:101AA00000EB840080ED000A214800EB840090EDFB
:101AB000000A214800EB8400D0ED000A30EE200A35
:101AC000224800EB8400D0ED000A30EE200A2048C6
:101AD00000EB840080ED000A1D4800EB8400D0ED8F
:101AE000000AB0EE600A1B4890ED001AD0ED000A23
:101AF000F1EE600A04F07DFA154800EB840080EDF9
:101B0000000A134800EB840090ED000A124800EB35
:101B1000840080ED000ABDEC028B10BD500900204E
:101B2000E00000206009002070090020A0090020CA
:101B3000D00900206F12033BE009002000803B45E4
:101B400000803BC58009002090090020F00900209A
:101B5000000A002088000020100A0020704710B5FD
:101B600002214FF4FA50FFF7BDFB41F28830FFF736
:101B7000F5FF10BD10B52DED028B9FED900A90483A
:101B800080ED000A9FED8D0A8E4880ED000A9FEDE2
:101B90008B0A8D4880ED000A9FED880A8B4880ED06
:101BA000000A9FED8B0A8B4880ED000A8A48D0ED31
:101BB000000A9FED871A80EE810A8848D0ED000A5E
:101BC0009FED831AC0EE811A30EE210A844890ED11
:101BD000001ADFED841AC1EE210A7A4890ED001A4E
:101BE00000EE810A7B48D0ED000A20EE200A7E48F4
:101BF00080ED000A784890ED000AF1EE400A9FED72
:101C0000741A80EE810A7548D0ED000A9FED701AB3
:101C1000C0EE811A30EE210A714890ED001ADFED16
:101C2000711AC1EE210A664890ED001A10EE810A81
:101C30006848D0ED000A20EE200A6B4880ED010ACA
:101C4000654890ED000AF1EE400A9FED611A80EEC2
:101C5000810A6248D0ED000A9FED5D1AC0EE811A3C
:101C600030EE210A5E4890ED001ADFED5E1AC1EEFB
:101C7000210A554890ED001A00EE810A5548D0ED32
:101C8000000A20EE200A584880ED020A5248D0EDA2
:101C9000000A9FED4F1A80EE810A5048D0ED000AED
:101CA0009FED4B1AC0EE811A30EE210A4C4890EDA0
:101CB000001ADFED4C1AC1EE210A444890ED001ADB
:101CC00010EE810A4348D0ED000A20EE200A464873
:101CD00080ED030A9FED450AB0EE408AD0ED000A80
:101CE000B0EE600AB0EE481AF1EE480A04F081F94D
:101CF0003D4880ED000AD0ED010AB0EE600AB0EE7A
:101D0000481AF1EE480A04F074F9374880ED010AE8
:101D1000D0ED020AB0EE600AB0EE481AF1EE480AC1
:101D200004F067F9304880ED020AD0ED030AB0EE06
:101D3000600AB0EE481AF1EE480A04F05AF92A484F
:101D400080ED030A2A480078042834D12648D0EDD3
:101D5000000AB0EE600A9FED271ADFED270A04F0B3
:101D600048F9214880ED000AD0ED010AB0EE600A82
:101D70009FED201ADFED200A04F03BF91A4880EDB0
:101D8000010AD0ED020AB0EE600A9FED181ADFEDED
:101D90001B0A04F02EF9144880ED020AD0ED030A64
:101DA000B0EE600A9FED111ADFED140A04F021F97C
:101DB0000D4880ED030ABDEC028B10BD3980B540A3
:101DC00028010020240100202C01002030010020E7
:101DD000D0A2184034010020D8000020D4000020F8
:101DE000DC000020216F5841500900200000FA4516
:101DF000D000002000803B4500803BC50000FAC5B4
:101E000010B52DED048BB7EE000AF0EE408A9FED81
:101E10008C0AB0EE408A9FED8A0AB0EE409A002408
:101E200002F08EFB044602F085FB00EE100AB8EECD
:101E3000400AB0EE409A834890ED000AB5EEC00A21
:101E4000F1EE10FA02DD90ED000A04E07D4890ED1D
:101E5000000AB1EE400A7B48D0ED010AF5EEC00A57
:101E6000F1EE10FA02DDD0ED010A04E07548D0ED84
:101E7000010AF1EE600A70EE200A724890ED020A43
:101E8000B5EEC00AF1EE10FA02DD90ED020A04E0B0
:101E90006C4890ED020AB1EE400A70EE800A694883
:101EA00090ED030AB5EEC00AF1EE10FA02DD90EDF6
:101EB000030A04E0634890ED030AB1EE400A30EEF5
:101EC000800AB0EE408A74B95F480068401C5E49E1
:101ED000086008460068642851DD9FED5C0A5C4894
:101EE00080ED000A4BE0002057490860594890ED0A
:101EF000000AB4EEC09AF1EE10FA10D290ED000A8A
:101F0000C9EE000A20EEA00AF0EE408A524890ED99
:101F1000000A28EE800A4E4880ED000A05E04E488F
:101F200090ED000A4A4880ED000A4C48406800EEF7
:101F3000100ADFED4B0AB4EEE00AF1EE10FA18DDFC
:101F40004648406800EE100ADFED450A30EE600AB0
:101F5000DFED430A80EE201A21EE010AF0EE408AFE
:101F60003D4890ED000A28EE800A394880ED000ACD
:101F700005E0394890ED000A354880ED000A344804
:101F800090ED000AB4EEC08AF1EE10FA54DD2D484F
:101F9000D0ED000A80EE880A2D48D0ED000A20EE30
:101FA000200ABDEEC00A10EE100A00B200EE100AC0
:101FB000B8EEC00A234880ED000AD0ED010A80EE99
:101FC000880A2348D0ED000A20EE200ABDEEC00AA0
:101FD00010EE100A00B200EE100AB8EEC00A19485E
:101FE00080ED010AD0ED020A80EE880A1848D0ED93
:101FF000000A20EE200ABDEEC00A10EE100A00B260
:1020000000EE100AB8EEC00A0E4880ED020AD0EDCC
:10201000030A80EE880A0E48D0ED000A20EE200A5E
:10202000BDEEC00A10EE100A00B200EE100AB8EEC3
:10203000C00A044880ED030ABDEC048B10BD00000B
:1020400000000000100A0020380100200000FA45BE
:102050000C01002004010020080100203F050020A1
:1020600000008C4210B52DED028B0446B0EE408A84
:102070009FED510AF0EE408A00EE104AB8EEC00A19
:102080004E4802F03DFBBDEEC00A4D4880ED000A0F
:1020900000EE104AB8EEC00A20EE080A494880ED6A
:1020A000000A9FED491ADFED490A90ED000A03F09E
:1020B000A0FF444880ED000A45480068404909688F
:1020C000401A434908600846006800EB400000EEF3
:1020D000100AB8EEC00ADFED3F0A20EE200A3E48A3
:1020E00080ED000A201E01DB014600E041420A2982
:1020F00002DC0020364908609FED331ADFED330A19
:10210000354890ED000A03F074FF334880ED000A73
:102110002B4800683149B1F90010401A3049086075
:1021200027490868002801DB014600E041422329D5
:102130000EDD2B480068404200EE100AB8EEC00ADF
:10214000DFED280A20EE200A274880ED000A04E08F
:102150009FED190A244880ED000A1A4890ED000A04
:102160002148D0ED000A30EE200AF0EE408A1F48E8
:1021700090ED000ABDEEC00A10EE102A90ED000AA4
:10218000B1EE400ABDEEC00A10EE101ABDEEE80A2C
:1021900010EE100A03F022FF00EE100AB8EEC00A9B
:1021A000F0EE408A0648008800B20C490880B0EE84
:1021B000680ABDEC028B10BD000000001C09002065
:1021C000480100201801002000409C4500409CC5AB
:1021D000400100206F12033B1C0100203C01002045
:1021E000440100200000AF43200100208C000020AB
:1021F000F0B589B007460C4615461E464FF40070F0
:10220000039000200590069008200790380A8DF86A
:102210000400F8B28DF80500200A8DF80600E0B23F
:102220008DF80700280A8DF80800E8B28DF809003B
:10223000300A8DF80A00F0B28DF80B00012301AAD4
:1022400003A9024800F0FDF809B0F0BD50010020DC
:1022500010B5024800F086FE10BD0000800300208B
:1022600010B5024800F07EFE10BD0000E002002024
:1022700010B5024800F076FE10BD000020040020DA
:1022800010B5024800F06EFE10BD0000E001002015
:102290000146087810381823B0FBF3F20848805C38
:1022A000C865032A05D908686FF30900001D886511
:1022B00003E008686FF309008865886D70470000C7
:1022C000E8630008014600208A6A8B69CBB932B105
:1022D000012A0DD0022A03D0032A10D10EE000BF3C
:1022E000CB6A03F08073B3F1807F00D1012007E057
:1022F000CB6AB3F1C07F00D1012001E000E000BF54
:1023000034E08B69B3F5005F1AD132B1012A07D0EE
:10231000022A03D0032A11D10AE000BF01200EE0F7
:10232000CB6A03F08073B3F1807F00D1012006E017
:10233000CB6AB3F1C07F00D1012000E000BF15E0FF
:1023400032B1012A05D0022A04D0032A0CD103E0BD
:1023500000BF00BF012008E0CB6A03F08073B3F137
:10236000807F00D1012000E000BF00BF704730B582
:102370000468246824F4802405682C600468636081
:102380008468402C04D10468A2600468E16003E022
:102390000468A1600468E26030BD704770470021A6
:1023A000B1F5805F03DDA1F5005000B2704711F573
:1023B000805F03DA01F5005000B2F7E70846F5E761
:1023C00030B5034613B94FF6FF7030BD09E013F87E
:1023D000014B82EA0400C0B2054D35F8100080EAD6
:1023E0002222081EA1F10101F1D11046EDE7000003
:1023F0000A65000830B5034605E013F8010B80EAD2
:1024000002040448025D081EA1F10105A9B2F4D13D
:10241000104630BD0964000810B5024692F820301D
:10242000012B01D0022B06D11068406908431468C3
:102430006061002010BD506A40F48020506201208D
:10244000F8E7F0B504460D461E4694F82070206863
:102450008368A86800B900E000BF012F01D0022FF7
:102460007CD103F0806030B903F0006018B903F04C
:102470008050002873D0C3F30161022905D9606A36
:1024800040F4000060620120F0BD0120884030600F
:10249000A86860B9B5F800C0E86840EA4C5C2068FC
:1024A00000F5C07000EB0110C0F800C00FE0D5E9E6
:1024B00001C040EACC00D5F80CC040EA0C00D4F8CA
:1024C00000C00CF5C07C0CEB011CCCF80000D5F86A
:1024D00010C0206800F5C07000EB0110C0F804C007
:1024E000287D01280ED1206800F5C07000EB011096
:1024F000406840F4807C206800F5C07000EB01105B
:10250000C0F804C0D079000692F806C040EA0C403A
:1025100092F805C040EA0C2C10794CEA000C2068B7
:1025200000F5C07000EB0110C0F80CC0D0780006B8
:1025300092F802C040EA0C4092F801C040EA0C2038
:1025400092F800C040EA0C00D4F800C00CF5C07C42
:102550000CEB011CCCF80800206801E016E00FE04D
:1025600000F5C07000EB0110006840F0010C20681D
:1025700000F5C07000EB0110C0F800C0002083E738
:10258000606A40F40010606201207DE7606A40F4F8
:1025900080206062012077E7F0B504460A46216892
:1025A00094F82050012D01D0022D7ED1424901F531
:1025B0000071086840F001000860086820F47C5051
:1025C00008600868566A40EA06200860107D00F03E
:1025D0001F06012000FA06F3C8699843C861A1F5F7
:1025E0000071D069C8B9D1F80C029843C1F80C0247
:1025F000908880B2968940EA064601F510705769C6
:1026000040F83760108880B2168940EA064601F526
:102610001070576900EBC7004660D069012819D1D6
:10262000D1F80C021843C1F80C02908880B21688C9
:1026300040EA064601F51070576940F83760908906
:1026400080B2168940EA064601F51070576900EB22
:10265000C7004660906928B9D1F804029843C1F8D0
:10266000040204E0D1F804021843C1F8040210691E
:1026700028B9D1F814029843C1F8140204E0D1F843
:1026800014021843C1F81402106A012804D1D1F8C9
:102690001C021843C1F81C02D1F8000220F001000E
:1026A000C1F800020020F0BDFFE7606A40F480201E
:1026B00060620120F7E7000000640040704770B5D9
:1026C000044694F82050012D01D0022D7CD151B93F
:1026D0002068C06800F0030080B9606A40F4001010
:1026E0006062012070BD2068006900F0030028B915
:1026F000606A40F4001060620120F3E7206800F592
:10270000D87000EB0110006800F004009060906841
:1027100040B9206800F5D87000EB01100068400D4A
:10272000106007E0206800F5D87000EB0110006829
:10273000C0085060206800F5D87000EB01100068F8
:1027400000F002004008D060206800F5D87000EB6F
:102750000110406800F00F001061206800F5D8708B
:1027600000EB0110406800F47F40000A906120688F
:1027700000F5D87000EB01104068000C5061206833
:1027800000F5D87000EB011080681870206800F523
:10279000D87000EB0110806800F47F40000A587088
:1027A000206800F5D87000EB0110806800F47F000D
:1027B000000C9870206800F5D87000EB011080685C
:1027C000000ED870206800E031E000F5D87000EB12
:1027D0000110C0681871206800F5D87000EB011076
:1027E000C06800F47F40000A5871206800F5D87076
:1027F00000EB0110C06800F47F00000C98712068A5
:1028000000F5D87000EB0110C068000ED87131B926
:102810002068C06840F020002668F06005E020686D
:10282000006940F020002668306100205AE7606AA5
:1028300040F480206062012054E72DE9F05F0446F7
:102840000025206846692068D0F8049020688768D1
:102850002068D0F80CA02068D0F810B02068D0F81C
:10286000188006F00100002855D007F00100C0B123
:1028700001202168886007F0020018B1204600F0AE
:1028800039FB0EE007F0040010B145F4006508E0E4
:1028900007F0080010B145F4805502E0204600F032
:1028A00027FB07F48070C8B14FF4807021688860FE
:1028B00007F4007018B1204600F026FB0EE007F484
:1028C000806010B145F4005508E007F4006010B1D5
:1028D00045F4804502E0204600F014FB07F4803008
:1028E000C8B14FF480302168886007F4003018B117
:1028F000204600F019FB0EE007F4802010B145F4EB
:10290000004508E007F4002010B145F4803502E0EE
:10291000204600F007FB06F0080038B10AF010006E
:1029200020B145F4007510202168C86006F004004D
:1029300040B10AF0080028B108202168C86020468C
:1029400000F0FAF906F0020038B12068C06800F023
:10295000030010B1204600F0F1F906F0400038B154
:102960000BF0100020B145F480651020216808614B
:1029700006F0200040B10BF0080028B108202168C3
:102980000861204600F082FA06F0100038B1206895
:10299000006900F0030010B1204600F078FA06F458
:1029A000003040B109F0100028B1102021684860C3
:1029B000204600F06DFA06F4803040B109F00800BE
:1029C00028B1082021684860204600F0B5FA06F4D6
:1029D000004088B309F0040078B306F4807020B199
:1029E00008F0010008B145F0010506F4007020B1BF
:1029F00008F0020008B145F0020506F4806020B13D
:102A000008F0040008B145F0040506F40060A0B128
:102A100008F0700088B108F07000402817D006DC7C
:102A200010280BD020280CD0302819D10CE05028C9
:102A300010D0602814D110E01DE019E045F0080521
:102A40000FE045F010050CE045F0200509E045F0E9
:102A5000400506E045F0800503E045F4807500E0A0
:102A600000BF00BF2068806920F070002168886185
:102A70000420216848602DB1606A284360622046C6
:102A8000FFF71CFEBDE8F09F70B504460CB90120AD
:102A900070BD94F8200010B9204600F0AFF820680F
:102AA000006820F002002168086000F087FD0546FC
:102AB0000DE000F083FD401B0A2808D9606A40F44D
:102AC00000306062052084F820000120E0E72068E3
:102AD000406800F002000028EBD12068006840F058
:102AE00001002168086000F069FD05460DE000F076
:102AF00065FD401B0A2808D9606A40F40030606216
:102B0000052084F820000120C2E72068406800F01A
:102B100001000028EBD0207E012806D12068006843
:102B200040F080002168086005E02068006820F01F
:102B3000800021680860607E012806D12068006856
:102B400040F040002168086005E02068006820F03F
:102B5000400021680860A07E012806D12068006836
:102B600040F020002168086005E02068006820F03F
:102B7000200021680860E07E012806D120680068F6
:102B800020F010002168086005E02068006840F02F
:102B9000100021680860207F012806D120680068A5
:102BA00040F008002168086005E02068006820F017
:102BB000080021680860607F012806D1206800684D
:102BC00040F004002168086005E02068006820F0FB
:102BD000040021680860D4E9020108432169084320
:102BE000616908436168491E08432168C861002083
:102BF0006062012084F82000002049E710B586B00B
:102C00000446142101A8FDF737FB46492068884295
:102C100040D100BF002000904348006840F00070A1
:102C2000414908600846006800F00070009000BF4D
:102C300000BF00BF002000903B481038006840F003
:102C400008003949103908600846006800F008009B
:102C5000009000BF00BF03200190022002900020DE
:102C60000390032004900920059001A92F4800F04B
:102C700091FB00220121132000F02AFD132000F017
:102C800017FD00220121142000F022FD142000F085
:102C90000FFD44E026492068884240D100BF002053
:102CA00000902148006840F080601F490860084695
:102CB000006800F08060009000BF00BF00BF0020EF
:102CC000009019481038006840F002001649103989
:102CD00008600846006800F00200009000BF00BFD6
:102CE0004FF44050019002200290002003900320F6
:102CF00004900920059001A90E4800F04BFB00222A
:102D000005213F2000F0E4FC3F2000F0D1FC002230
:102D10000521402000F0DCFC402000F0C9FC06B09A
:102D200010BD00000064004040380240000C02402A
:102D300000680040000402407047000070B58AB08F
:102D400006464D4886427CD101AB03AA002130469D
:102D5000FFF7B5FC0546002D74D140F2032203981D
:102D6000811A904211D007DC102873D0A0F2012004
:102D700048B1012877D107E0012907D0062934D0CE
:102D8000072970D132E000BF00BF00BF0398401E8A
:102D9000C4B29DF805009DF8041040EA012004EB40
:102DA0004401364A02EB810188809DF807009DF8B6
:102DB000061040EA012000B204EB440102EB81015D
:102DC000C8809DF809009DF8081040EA012000B273
:102DD00004EB440102EB810108819DF80A0004EB39
:102DE000440102EB810188723DE000BF0398A0F22C
:102DF0000920C4B29DF805009DF8041040EA0120A6
:102E000004EB44011E4A02EB810188809DF8070013
:102E10009DF8061040EA012000B204EB440102EBE9
:102E20008101C8809DF809009DF8081040EA012042
:102E300000B204EB440102EB810108819DF80A0015
:102E400002E016E010E005E004EB440102EB810132
:102E5000887208E09DF805009DF8041040EA012002
:102E60000849086000BF04E007480068401C0649A4
:102E700008600AB070BD00005001002080040020EE
:102E8000B0040020EA0000201800002070477047BE
:102E9000704770B5044694F82000012822D1022022
:102EA00084F820002068006820F001002168086094
:102EB00000F084FB05460DE000F080FB401B0A2873
:102EC00008D9606A40F400306062052084F8200070
:102ED000012070BD2068406800F001000028EBD19F
:102EE0006062F6E7606A40F4002060620120F0E76B
:102EF000704700000249884200D000BF70470000C0
:102F0000500100207047000004490968491C034A29
:102F100011600349884200D000BF704710000020B4
:102F200050010020704700000249884200D000BFD5
:102F300070470000500100207047014691F83500AD
:102F4000022803D08020486501207047052081F8C1
:102F500035000868006820F001000A681060002051
:102F6000F3E70000F8B50446002000908C480068A4
:102F70004FF41651B0FBF1F7A56D2E6894F85C1074
:102F800008208840304098B12068006800F00400B4
:102F900070B12068006820F004002168086094F88F
:102FA0005C1008208840A860606D40F001006065FA
:102FB00094F85C1001208840304068B12068406976
:102FC00000F0800040B194F85C1001208840A860B7
:102FD000606D40F00200606594F85C100420884049
:102FE000304068B12068006800F0020040B194F8F9
:102FF0005C1004208840A860606D40F004006065AB
:1030000094F85C1010208840304078B32068006845
:1030100000F0080050B394F85C1010208840A860BD
:103020002068006800F4802080B12068006800F407
:10303000002028B9206CC8B12046216C884715E0D3
:10304000A06C98B12046A16C88470FE0206800680A
:1030500000F4807028B92068006820F0080021681A
:103060000860206C10B12046216C884794F85C10F1
:10307000202088403040002865D02068006800F09B
:10308000100000285FD094F85C1020208840A860D1
:1030900094F83500052828D12068006820F0160033
:1030A000216808602068406920F08000216848613C
:1030B000206C08B9A06C28B12068006820F00800D6
:1030C0002168086094F85C103F208840A86000BF29
:1030D000002084F8340000BF012084F83500206D02
:1030E00010B12046216D8847F8BD2068006800F4C3
:1030F000802080B12068006800F4002028B9606C4E
:1031000010B12046616C88471DE0E06BD8B12046C5
:10311000E16B884717E02068006800F4807068B9A8
:103120002068006820F010002168086000BF0020BF
:1031300084F8340000BF012084F83500E06B10B142
:103140002046E16B8847606D38B3606D00F0010088
:10315000F0B1052084F835002068006820F00100F7
:103160002168086000BF0098401C0090B84200D958
:1031700005E02068006800F001000028F3D100BFDE
:1031800000BF002084F8340000BF012084F835001F
:10319000E06C10B12046E16C884700BFA4E7000056
:1031A0000C0000202DE9F0410446002500F006FA4D
:1031B000074614B90120BDE8F081606A00B100BF84
:1031C00000BF002084F8340000BF022084F83500DE
:1031D0002068006820F00100216808600AE000F023
:1031E000EDF9C01B052805D920206065032084F86F
:1031F0003500E0E72068006800F001000028EED10B
:103200002068056821480540D4E901010843E168C8
:1032100008432169084361690843A1690843E169DA
:103220000843216A08430543606A042803D1D4E9AE
:103230000B0108430543206805602068456925F0B7
:103240000705606A0543606A04280DD1A06A05433A
:10325000E06A48B12046FFF735F828B140206065A4
:10326000012084F83500A6E7206845612046FFF775
:103270000FF8064694F85C103F208840B0600020AC
:103280006065012084F83500002094E73F8010F04D
:103290002DE9F04104460D4616461F464FF0000842
:1032A00000BF94F83400012802D10220BDE8F0816B
:1032B000012084F8340000BF94F83500012811D1B2
:1032C000022084F83500002060653B4632462946DE
:1032D0002046FFF74CF82068006840F001002168A4
:1032E000086006E000BF002084F8340000BF4FF003
:1032F00002084046DAE72DE9F04704460D46164637
:103300001F464FF00008D4F8589000BF94F83400DE
:10331000012802D10220BDE8F087012084F83400A2
:1033200000BF94F8350001282BD1022084F8350025
:10333000002060653B46324629462046FFF717F8D5
:1033400094F85C103F208840C9F8080020680068A5
:1033500040F01600216808602068406940F0800055
:1033600021684861206C28B12068006840F008009E
:10337000216808602068006840F00100216808604A
:1033800006E000BF002084F8340000BF4FF00208C0
:103390004046C0E7F8B502460B4600250024002051
:1033A0000021E6E0012606FA01F51E6806EA05049A
:1033B000AC4273D15E68022E02D05E68122E13D129
:1033C000CF0802F1200656F827004E07F70E0F2609
:1033D000BE40B0434F07FF0E1E69BE403043CF08CA
:1033E00002F1200646F8270010684F000326BE4071
:1033F000B0431E7906F003064F00BE403043106014
:103400005E68012E08D05E68022E05D05E68112E1F
:1034100002D05E68122E13D190684F000326BE4082
:10342000B0434F00DE68BE403043906050680126D4
:103430008E40B0431E79C6F300168E403043506074
:10344000D0684F000326BE40B0434F009E68BE4088
:103450003043D0605E6806F08056B6F1805FA8D138
:1034600000BF00260096454E366846F48046434F1E
:103470003E603E46366806F48046009600BF00BFB8
:103480003F4E8F0856F827008E07370F0F26BE4095
:10349000B0433C4EB24202D100262EE068E03A4EE4
:1034A000B24201D1012628E0384EB24201D10226B3
:1034B00023E0374EB24201D103261EE0354EB24220
:1034C00001D1042619E0344EB24201D1052614E0A0
:1034D000324EB24201D106260FE0314EB24201D146
:1034E00007260AE02F4EB24201D1082605E02E4EF3
:1034F000B24201D1092600E00A268F073F0FBE40E5
:1035000030431F4E8F0846F82700284E3068A043EE
:103510005E6806F48036B6F5803F00D12043234E26
:103520003060361D3068A0435E6806F40036B6F59C
:10353000003F00D120431D4E361D3060361D3068DF
:10354000A0435E6806F48016B6F5801F00D12043C4
:10355000164E08363060361D3068A0435E6806F4AB
:103560000016B6F5001F00D12043104E0C36306017
:10357000491C1029FFF416AFF8BD00004438024082
:1035800008380140000002400004024000080240E8
:10359000000C0240001002400014024000180240DB
:1035A000001C02400020024000240240003C014078
:1035B0000AB1816101E00B04836170470148006832
:1035C00070470000000000200348006803490978A4
:1035D00008440149086070470000002008000020EE
:1035E00010B50D48006840F400700B4908600846AB
:1035F000006840F4806008600846006840F480700D
:103600000860032000F0A2F8002000F007F800F0A6
:103610002BF8002010BD0000003C024070B50446AD
:103620000E4800784FF47A71B1FBF0F00C4909684C
:10363000B1FBF0F5284600F0FFFB08B1012070BD9A
:10364000102C07D200222146501E00F041F80548F8
:10365000046001E00120F2E70020F0E7080000200C
:103660000C0000200400002008B500BF00200090DE
:103670000E48006840F480400C4908600846006825
:1036800000F48040009000BF00BF00BF0020009009
:10369000081F006840F08050091F08600846006855
:1036A00000F08050009000BF00BF08BD44380240C9
:1036B00001460846002809DB00F01F0301229A405A
:1036C00043099B0003F1E023C3F8002100BF7047CA
:1036D0002DE9F05F80460D461646002701F022FFD7
:1036E000074639462A46334601F00700C0F1070A6B
:1036F000BAF1040F02D94FF0040A01E0C0F1070A41
:10370000D14600F1040ABAF1070F02D24FF0000AC5
:1037100001E0A0F1030AD4464FF0010A0AFA09FABF
:10372000AAF1010A0AEA020A0AFA0CFA4FF0010B9E
:103730000BFA0CFBABF1010B0BEA030B4AEA0B048F
:103740002146404601F0F6FEBDE8F09F00BF00F0C4
:103750000702064B19684FF6FF031940044B0B4351
:1037600043EA0221014B196000BF70470CED00E0F5
:103770000000FA0570B504460D460CB9012070BD75
:103780005848006800F00F00A84209D255490D7052
:103790000846006800F00F00A84201D00120EEE7C3
:1037A000207800F0020002281DD1207800F00400EB
:1037B000042805D14C48006840F4E0504A490860AC
:1037C000207800F00800082805D14748006840F438
:1037D0006040454908604448006820F0F000A16856
:1037E000084341490860207800F00100A8B36068F0
:1037F000012807D13C4808380068C0F34040B8B9F8
:103800000120BCE76068022802D06068032807D165
:10381000354808380068C0F3406048B90120AEE779
:10382000314808380068C0F3400008B90120A6E715
:103830002D48006820F00300616808432A490860A9
:10384000FFF7BCFE064609E0FFF7B8FE801B41F219
:103850008831884202D9032091E707E022480068B6
:1038600000F00C006168B0EB810FEDD11D480068DD
:1038700000F00F00A84209D91A490D7008460068E7
:1038800000F00F00A84201D0012078E7207800F076
:103890000400042807D11448006820F4E050E168CF
:1038A000084311490860207800F00800082808D172
:1038B0000D48006820F46040216940EAC1000A49CF
:1038C000086000F03DF808490968C1F30311074A90
:1038D000515CC840064908600020FFF79FFE0020A9
:1038E0004DE70000003C024008380240F063000849
:1038F0000C00002001480068704700000C00002008
:1039000000B5FFF7F7FF04490968C1F38221034AB4
:10391000515CC84000BD0000083802400064000847
:1039200000B5FFF7E7FF04490968C1F34231034AD4
:10393000515CC84000BD0000083802400064000827
:103940002DE9F047002400250026A14625480068FF
:1039500000F00C0020B1042805D008283AD105E079
:10396000DFF8849039E0DFF8849036E01D48001FCE
:10397000006800F03F041B48001F006800F480004E
:1039800078B11A481749091F0968C1F38811A0FBCB
:1039900001700146224600233846FCF723FC054609
:1039A0000EE011480F49091F0968C1F38811A0FBF7
:1039B00001700146224600233846FCF713FC0546F9
:1039C0000848001F0068C0F30140401C4600B5FBDA
:1039D000F6F902E0DFF8109000BF00BF4846BDE8EE
:1039E000F0870000083802400024F400001BB700F4
:1039F000F8B504460CB90120F8BD207800F00100AC
:103A0000002874D0F948006800F00C0004280DD09C
:103A1000F648006800F00C00082813D1F348001F96
:103A2000006800F48000B0F5800F0BD1EF48083833
:103A30000068C0F34040002859D06068002856D183
:103A40000120D9E700BF6068B0F5803F08D1E748A2
:103A50000838006840F48030E449083908601EE006
:103A60006068B0F5A02F0DD1E0480838006840F438
:103A70008020DE49083908600846006840F480303C
:103A800008600CE0D9480838006820F48030D74935
:103A9000083908600846006820F48020086000BFEC
:103AA000606890B1FFF78AFD054606E0FFF786FDE6
:103AB000401B642801D903209EE7CC4808380068E1
:103AC000C0F340400028F1D011E0FFF777FD054634
:103AD00006E0FFF773FD401B642801D903208BE744
:103AE000C24808380068C0F340400028F1D120786F
:103AF00000F0020002285FD1BC48006800F00C0012
:103B000058B1BA48006800F00C0008281CD1B7482A
:103B1000001F006800F48000B0B9B448083800689D
:103B2000C0F3400020B1E068012801D0012063E724
:103B3000AE480838006820F0F800216940EAC1006A
:103B4000AA490839086037E0E06800B30120A849B5
:103B50000860FFF733FD054606E0FFF72FFD401B29
:103B6000022801D9032047E7A04808380068C0F3BD
:103B700040000028F1D09D480838006820F0F80087
:103B8000216940EAC10099490839086014E0002021
:103B900097490860FFF712FD054606E0FFF70EFDA6
:103BA000401B022801D9032026E790480838006806
:103BB000C0F340000028F1D1207800F00800082868
:103BC0002CD16069A8B101208A490860FFF7F6FC92
:103BD000054606E0FFF7F2FC401B022801D903204E
:103BE0000AE782486C300068C0F340000028F1D03A
:103BF00014E000207F490860FFF7E0FC054606E07E
:103C0000FFF7DCFC401B022801D90320F4E67748CB
:103C10006C300068C0F340000028F1D1207800F03B
:103C20000400042870D1002670483830006800F085
:103C3000805090B900BF002000906C483830006878
:103C400040F080506949383108600846006800F04B
:103C50008050009000BF00BF01266748006800F454
:103C60008070B0B96448006840F4807062490860B0
:103C7000FFF7A4FC054606E0FFF7A0FC401B022866
:103C800001D90320B8E65C48006800F48070002881
:103C9000F2D000BFA068012808D1544868300068FD
:103CA00040F001005149683108601DE0A068052816
:103CB0000DD14E486830006840F004004B4968312F
:103CC00008600846006840F0010008600CE04748C2
:103CD0006830006820F001004449683108600846F7
:103CE000006820F00400086000BFA068A8B1FFF7DA
:103CF00065FC054609E0FFF761FC401B41F2883195
:103D0000884202D9032077E626E038486830006808
:103D1000C0F340000028EED013E0FFF74FFC05464B
:103D200008E0FFF74BFC401B41F28831884201D983
:103D3000032061E62D4868300068C0F34000002889
:103D4000EFD1012E07D129483830006820F080508B
:103D500026493831086000BFA069B8B3234800681D
:103D600000F00C0008285ED0A069022846D100208F
:103D70001F490866FFF722FC054606E0FFF71EFC18
:103D8000401B022801D9032036E61848083800688D
:103D9000C0F340600028F1D1D4E907010843616A0B
:103DA00040EA81110122A06AC2EB500041EA0041C1
:103DB0002C20005D41EA00600C49091F08600120C9
:103DC0000B490866FFF7FAFB054607E02DE0FFF711
:103DD000F5FB401B022801D903200DE603480838F3
:103DE0000068C0F340600028F1D01EE008380240AF
:103DF00000004742800E47420070004000200C49FE
:103E00000866FFF7DBFB054606E0FFF7D7FB401B24
:103E1000022801D90320EFE506480068C0F340609E
:103E20000028F2D101E00120E6E50020E4E50000F1
:103E3000000047420038024070B504462546681E1F
:103E4000B0F1807F01D301200FE0681E4FF0E02128
:103E500048610F214FF0FF3001F06CFB00204FF064
:103E6000E021886107200861002070BD10B504467C
:103E70000CB9012010BD94F83D0028B9002084F849
:103E80003C00204600F00CF8022084F83D00211D83
:103E9000206800F0CFFE012084F83D000020E9E713
:103EA00038B504460E492068884217D100BF00206B
:103EB00000900C48006840F002000A49086008467B
:103EC000006800F00200009000BF00BF0022012146
:103ED0001D20FFF7FDFB1D20FFF7EAFB38BD0000AA
:103EE000000400404038024001460868C06840F0C5
:103EF00001000B68D8600868806800F00702062A95
:103F000005D00868006840F001000B6818600020C8
:103F1000704770472DE9F04704462068056820681F
:103F2000C668206847694FF00008C14605F00F08D1
:103F3000B8F1000F0AD105F0200038B106F02000DA
:103F400020B1204601F03DF8BDE8F087B8F1000F40
:103F50006ED007F0010018B906F49070002867D001
:103F600005F0010030B106F4807018B1E06B40F04C
:103F70000100E06305F0040030B107F0010018B162
:103F8000E06B40F00200E06305F0020030B107F0A2
:103F9000010018B1E06B40F00400E06305F0080098
:103FA00030B107F0010018B1E06B40F00800E063A9
:103FB000E06B70B305F0200028B106F0200010B1CE
:103FC000204600F0FEFF20684069C0F38019E06BD6
:103FD00000F0080010B9B9F1000F23D0204600F01E
:103FE00080FF2068406900F04000402816D120681A
:103FF000406920F0400021684861606B50B117486B
:10400000616B0865606BFEF798FF10B1606B016D26
:1040100088470CE02046FFF77CFF08E02046FFF7CA
:1040200078FF04E02046FFF774FF0020E0638BE791
:1040300005F0800030B106F0800018B1204601F094
:10404000C7F981E705F0400030B106F0400018B133
:10405000204600F056FF77E700BF75E72B4E0008BB
:1040600010B504460CB9012010BDA06900B100E0F4
:1040700000BF94F8390028B9002084F838002046A1
:1040800000F028F8242084F839002068C06820F463
:1040900000502168C860204600F0E6FF20680069F3
:1040A00020F49040216808612068406920F02A00CF
:1040B000216848612068C06840F400502168C860E9
:1040C0000020E063202084F8390084F83A000020C2
:1040D000CAE7000010B586B00446142101A8FCF719
:1040E000CBF8C0492068884259D100BF0020009019
:1040F000BD48006840F01000BB49086008460068F1
:1041000000F01000009000BF00BF00BF0020009032
:10411000B5481438006840F00200B349143908600B
:104120000846006800F00200009000BF00BFC020F9
:1041300001900220029001200390032004900720A8
:10414000059001A9A948FFF725F9A948A9490860E0
:104150004FF0006048600021A6488160C1604FF4C4
:10416000806101610021416181614FF48071C16111
:104170004902016200214162FFF714F808B1FEF71D
:104180000DF900BF9B486063846300BF00220221D9
:104190002520FFF79DFA2520FFF78AFA1FE19649AF
:1041A000206888425BD100BF002000908E48001F2D
:1041B000006840F480208C49091F086008460068A8
:1041C00000F48020009000BF00BF00BF00200090DE
:1041D00085481438006840F00800834914390860A5
:1041E0000846006800F00800009000BF00BF4FF4D0
:1041F000407001900220029001200390032004905F
:104200000720059001A97D48FFF7C4F87C487D4947
:1042100008604FF00060486000217A488160C1600A
:104220004FF4806101610021416181614FF480712F
:10423000C161002101624162FEF7B4FF08B1FEF7DF
:10424000ADF800BF6F486063846300BF0022114671
:104250002720FFF73DFA2720FFF72AFABFE06A4937
:10426000206888425CD100BF002000905E48001F9B
:10427000006840F400305C49091F08600846006887
:1042800000F40030009000BF00BF00BF002000908D
:1042900055481438006840F0080053491439086044
:1042A0000846006800F00800009000BF00BF6020D2
:1042B0000190022002900120039003200490072027
:1042C000059001A94D48FFF765F84D4878304F49F2
:1042D00008604FF00060486040214C488160002138
:1042E000C1604FF480610161002141618161C16160
:1042F0004FF40031016200214162FEF753FF08B123
:10430000FEF74CF800BF41482063846300BF0022E1
:1043100005212620FFF7DCF92620FFF7C9F95EE02A
:104320003B49206888425AD100BF002000902E48A7
:10433000006840F020002C4908600846006800F042
:104340002000009000BF00BF00BF00200090264862
:104350001438006840F040002349143908600846CA
:10436000006800F04000009000BF00BF4FF48440A0
:104370000190022002900120039003200490082065
:10438000059001A92348FFF705F819481838224974
:1043900008608005486000211F488160C1604FF4BB
:1043A000806101610021416181614FF48071C161CF
:1043B0004FF44031016200214162FEF7F3FE08B183
:1043C000FDF7ECFF00BF14486063846300BF002268
:1043D00002214720FFF77CF94720FFF769F906B073
:1043E00010BD0000001001404438024000040240AB
:1043F00040640240E001002000480040000C024000
:10440000286002408003002000440040E0020020B9
:1044100000140140001802402004002077B581B04C
:104420000446154694F83A00202850D1029800B16D
:1044300015B9012004B070BD00BF94F83800012800
:1044400001D10220F6E7012084F8380000BF02986D
:10445000A062A5850020E063222084F83A001D4870
:10446000616BC8631C48616B08641C48616BC8645D
:104470000020616B086502AE32682368191D2B4667
:10448000606BFEF738FF00BF0020009020680068D6
:10449000009020684068009000BF00BF00BF00206F
:1044A00084F8380000BF2068C06840F4807021683C
:1044B000C8602068406940F00100216848612068B8
:1044C000406940F04000216848610020B2E70220C6
:1044D000B0E700008F4E0008D54E00083F4E0008A0
:1044E00070477047704700BFFEE700000D48D0F8E6
:1044F00002000D4908600D4890ED000A0846D0ED15
:10450000000AB4EE600AF1EE10FA0AD008480088FA
:10451000401C07490880044890ED000A034880EDDC
:10452000000A7047330000204C000020500000209B
:104530004200002001480089704700003F0500202C
:1045400001480078704700003E0000202DE9F0414E
:1045500004460025002714B90120BDE8F0815A481F
:1045600021680160217901712078A52872D1052187
:10457000204600F0A7FF01286DD1607800F1090600
:104580003146204600F07EFF0128F5D101256079F3
:10459000A17940EA012740F20121781A8F423CD0EC
:1045A00012DC40F20111A7EB01008F4224D006DC9F
:1045B000012F11D0022F16D0032F57D117E0012859
:1045C0001FD0022852D123E007284FD2DFE800F0A5
:1045D0004E2B31373B4E44003C48B4F80710018065
:1045E000617A817042E03A48E17901703EE03948F1
:1045F000B4F80710018039E03748D4F8071001609B
:1046000034E03648B4F807100180617A81702DE0FB
:104610003348B4F80710018028E00F22E11D31482B
:10462000FBF711FE22E00E22E11D2F48FBF70BFEE7
:104630001CE01022E11D2D48FBF705FE16E02C487A
:10464000E179017012E02B48B4F807100180617A1B
:1046500081700BE02BE01AE02748D4F807100160C6
:10466000B4F80B108180FFF741FF00BF00BF164870
:10467000B0F80110E01D08448078A52807D1124940
:10468000B1F80120E11D1144881CFFF75FFF0E48BF
:10469000B0F80110E01D08448078A52807D10A4928
:1046A000B1F80120E11D1144881CFFF74FFF012DD7
:1046B00003D101201149087002E000200F49087061
:1046C000FCF772F9284648E7390000202000002056
:1046D0002300002024000020260000202A000020C3
:1046E0002D000020300500203F0500204D05002052
:1046F0002F00002030000020330000203E0000206A
:10470000F0EE400A90ED000A80ED010A90ED050AF6
:1047100090ED071A30EE010A80ED030A90ED030ACE
:1047200090ED081A30EE010A90ED031AC1EE001A5E
:10473000C0ED061A90ED010A90ED061AD0ED011AAF
:1047400070EEE11A01EE210A80ED020A90ED060AF0
:10475000B7EE001A31EE400A90ED031A20EE010A7E
:1047600080ED040A90ED040A80ED050A90ED020A3E
:1047700080ED000A90ED020A7047000010B50E4867
:104780000E4908600720486000210C488160C16024
:104790004FF400310161C90041610021017601211E
:1047A000417600218176C17601774177FEF76CF979
:1047B00008B1FDF7F3FD10BD00640040500100207A
:1047C00010B50E480E4908600720486000210C48CB
:1047D0008160C1604FF400310161C9004161002175
:1047E00001760121417600218176C17601774177FA
:1047F000FEF74AF908B1FDF7D1FD10BD0068004091
:104800007801002008B500BF002000901E48006815
:1048100040F480001C4908600846006800F48000ED
:10482000009000BF00BF00BF002000900846006855
:1048300040F4001008600846006800F40010009082
:1048400000BF00BF002211463A20FEF741FF3A2088
:10485000FEF72EFF002211460C20FEF739FF0C2038
:10486000FEF726FF002211461120FEF731FF11202E
:10487000FEF71EFF002211463920FEF729FF3920DE
:10488000FEF716FF08BD00003038024000B587B0C3
:10489000142102A8FBF7F0FC00BF0020019037486C
:1048A000006840F00200354908600846006800F0E2
:1048B0000200019000BF00BF00BF00200190084629
:1048C000006840F0080008600846006800F0080032
:1048D000019000BF00BF00BF0020019008460068A3
:1048E00040F0800008600846006800F080000190F9
:1048F00000BF00BF00BF002001900846006840F0E4
:10490000100008600846006800F01000019000BF29
:1049100000BF00BF002001900846006840F0200062
:1049200008600846006800F02000019000BF00BF4A
:104930000022C9141248FEF73BFE00224FF48041CA
:104940001048FEF735FE4FF40060029001200390FE
:1049500000200490059002A90948FEF71BFD4FF4C2
:10496000804002900120039000200490059002A94D
:104970000448FEF70FFD07B000BD000030380240CC
:10498000001002400014024010B50A480A490860AD
:1049900040F25720486000210748816040F2BB2167
:1049A000C16000210161FFF761FA0348FFF79CFA3B
:1049B00010BD000000040040F004002010B50B48BA
:1049C0000B4908600B484860002109488160C160BC
:1049D0004FF4806101610421416100218161C16165
:1049E000FFF73EFB08B1FDF7D9FC10BD00100140F8
:1049F000A0010020A086010010B50B480B490860FB
:104A00004FF4E1304860002108488160C1600161D5
:104A10000C21416100218161C161FFF721FB08B1D7
:104A2000FDF7BCFC10BD0000004400404002002027
:104A300010B50B480B4908604FF4E1304860002185
:104A400008488160C16001610C21416100218161E0
:104A5000C161FFF705FB08B1FDF7A0FC10BD000028
:104A6000004800404003002010B50B480B49086087
:104A70004FF4E1304860002108488160C160016165
:104A80000C21416100218161C161FFF7E9FA08B1A0
:104A9000FDF784FC10BD000000140140E00300207D
:104AA00000BFFEE770477047704700000948007874
:104AB00070B909480068401C07490860084600684A
:104AC000192805D9002008600120024908707047A4
:104AD0000020FCE77D0000208000002010B5FEF7DC
:104AE00073FD10BD00B593B0302107A8FBF7C4FBE0
:104AF000142102A8FBF7C0FB00BF0020019024484E
:104B0000006840F08050224908600846006800F0C4
:104B10008050019000BF00BF00BF002001901D48E1
:104B2000006840F440401B4908600846006800F4F3
:104B30004040019000BF00BF012007900004089092
:104B400002200D9041050E910C210F914FF4A87198
:104B50001091022111910421129107A8FEF748FF3C
:104B600008B1FDF71BFC0F200290022003900020EB
:104B700004904FF4A05005904FF48050069005210A
:104B800002A8FEF7F7FD08B1FDF708FC13B000BD61
:104B900040380240007000401448006840F4700043
:104BA000124908601248006840F00100104908608E
:104BB00000200F49083108600D4800680D49084081
:104BC0000B4908600C48091D0860081F006820F4A4
:104BD0008020091F0860002005490C3108604FF053
:104BE00000600249803908607047000088ED00E0ED
:104BF00000380240FFFFF6FE10300024084800682D
:104C0000C06840F0010006490968C86004480068AF
:104C1000006840F001000249096808607047000020
:104C2000F004002010B5024800F0C8F810BD0000E4
:104C3000F004002010B50268294B98420ED0B0F164
:104C4000804F0BD0274B984208D0274B984205D075
:104C5000264B984202D0264B984203D122F0700294
:104C60004B681A431E4B984220D0B0F1804F1DD0A4
:104C70001C4B98421AD01C4B984217D01B4B9842A1
:104C800014D01B4B984211D01A4B98420ED01A4B9D
:104C900098420BD0194B984208D0194B984205D036
:104CA000184B984202D0184B984203D122F440721C
:104CB000CB681A4322F080034C6943EA0402026085
:104CC0008B68C3620B688362054B984202D0084B25
:104CD000984201D10B6903630123436110BD0000B9
:104CE000000001400004004000080040000C0040AB
:104CF00000040140004001400044014000480140E0
:104D000000180040001C00400020004010B526485C
:104D1000408AC0F3402028B1FBF7B6FF01202349A9
:104D200008700BE00020214908701F48407A0128D4
:104D300002D1FBF7EBFF01E0FCF740F8FCF71AFFAC
:104D40001B48C0881B4908801948408A4880184879
:104D5000C08B88801648408DC880FCF7C1FDFDF7E8
:104D60004FF8154C94ED030ABDEEC00A10EE104A40
:104D700023B2114C94ED020ABDEEC00A10EE104AA7
:104D800022B20D4C94ED010ABDEEC00A10EE104A9D
:104D900021B2094C94ED000ABDEEC00A10EE104A93
:104DA00020B2FDF725FA10BDDA040020D000002063
:104DB00080040020E0000020100A002010B5044606
:104DC0002068006900F0010038B32068C06800F076
:104DD000010010B36FF00100216808610122910207
:104DE0000E48FEF7E5FB0E480088401C0C49088081
:104DF0000C48006810B1012808D104E0FFF756FE06
:104E00000849086002E0FFF781FF00BF00BF0022F1
:104E10004FF480610148FEF7CBFB10BD0014024047
:104E20006400002058000020704770B50546AC6B48
:104E30000020E085E0842046FFF76BF870BD70B578
:104E400006460025B46B20684069C0F3C01594F88D
:104E50003900212805D125B10020E084204600F04A
:104E600060F820684069C0F3801594F83A00222861
:104E700005D125B10020E085204600F032F8E06B36
:104E800040F01000E0632046FFF743F870BD70B5B6
:104E90000546AC6B2868006800F48070B0B900204B
:104EA000E0852068C06820F480702168C8602068B0
:104EB000406920F00100216848612068406920F0C5
:104EC000400021684861202084F83A002046FFF71E
:104ED00007FB70BD70B50446A56B2846FFF701FBC4
:104EE00070BD0168C96821F490710268D1600168E1
:104EF000496921F0010102685161202180F83A10CE
:104F0000704710B504462068C06820F04000216852
:104F1000C860202084F839002046FFF7E3FA00201B
:104F200010BD0168C96821F0C0010268D16020216C
:104F300080F839107047000010B504460549206814
:104F4000884206D10448FFF701FBC8210248FBF75D
:104F500093F910BD00480040150800202DE9F041EC
:104F600004460D461646002794F83A70202F26D1A5
:104F700005B116B90120BDE8F08100BF94F83800F2
:104F8000012801D10220F6E7012084F8380000BF93
:104F9000A562A6850020E0632268111D33462A46DB
:104FA000606BFEF775F92068406940F040002168A9
:104FB000486100BF002084F8380000BFDBE7022012
:104FC000D9E770B5044694F83A0022284AD1A0687F
:104FD000B0F5805F13D1A56A206940B920684068A8
:104FE000C0F308002880A06A801CA06219E0206835
:104FF0004068C0B22880A06A401CA06211E020690D
:1050000038B920684068C1B2A26A501CA062117011
:1050100007E02068406800F07F01A26A501CA0628F
:105020001170E08D401E80B2E085C8B92068C0686C
:1050300020F020002168C8602068C06820F48070DB
:105040002168C8602068406920F00100216848613B
:10505000202084F83A002046FFF742FA002070BD75
:105060000020FCE70220FAE72DE9F0410446206821
:10507000006920F44050E168084321680861216913
:10508000A068084361690843E16940EA01052068B6
:10509000C06849F20C61884328432168C8602068D1
:1050A000406920F44070A169084321684861E069C3
:1050B000B0F5004F7ED1C4492068884203D0C3496F
:1050C000206888425DD1FEF72BFC00EBC00101EBAC
:1050D000001061684900B0FBF1F06421B0FBF1F011
:1050E0000601FEF71DFC00EBC00101EB001061683A
:1050F0004900B0FBF1F7FEF713FC00EBC00101EB38
:10510000001061684900B0FBF1F06421B0FBF1F0E0
:1051100000EBC00101EB0010A7EB8000322101EB96
:10512000C0006421B0FBF1F000F0F80006EB40068F
:10513000FEF7F6FB00EBC00101EB001061684900CF
:10514000B0FBF1F7FEF7ECFB00EBC00101EB001048
:1051500061684900B0FBF1F06421B0FBF1F000EBB5
:10516000C00101EB0010A7EB8000322101EBC00071
:105170006421B0FBF1F000F0070030442168886042
:1051800020E1FEF7BDFB00EBC00101EB0010616800
:105190004900B0FBF1F06421B0FBF1F00601FEF72D
:1051A000AFFB00EBC00101EB001061684900B0FBF0
:1051B000F1F700E045E0FEF7A3FB00EBC00101EBD7
:1051C000001061684900B0FBF1F06421B0FBF1F020
:1051D00000EBC00101EB0010A7EB8000322101EBD6
:1051E000C0006421B0FBF1F000F0F80006EB4006CF
:1051F000FEF786FB00EBC00101EB0010616849007F
:10520000B0FBF1F7FEF77CFB00EBC00101EB0010F7
:1052100061684900B0FBF1F06421B0FBF1F000EBF4
:10522000C00101EB0010A7EB8000322101EBC000B0
:105230006421B0FBF1F000F0070030442168886081
:10524000C0E061492068884203D0604920688842F4
:105250005CD1FEF765FB00EBC00101EB001061685B
:105260008900B0FBF1F6FEF75BFB00EBC00101EB40
:10527000001061688900B0FBF1F06421B0FBF1F02F
:1052800000EBC00101EB0010A6EB8000322101EB26
:1052900000106421B0FBF1F000F0F006FEF740FBD7
:1052A00000EBC00101EB001061688900B0FBF1F078
:1052B0006421B0FBF1F006EB0016FEF731FB00EBCA
:1052C000C00101EB001061688900B0FBF1F7FEF747
:1052D00027FB00EBC00101EB001061688900B0FB07
:1052E000F1F06421B0FBF1F000EBC00101EB001024
:1052F000A7EB8000322101EB00106421B0FBF1F03C
:1053000000F00F003044216888605BE0FEF7F8FA97
:1053100000EBC00101EB001061688900B0FBF1F601
:10532000FEF7EEFA00EBC00101EB001061688900A6
:10533000B0FBF1F06421B0FBF1F000EBC00101EB38
:105340000010A6EB8000322101EB00106421B0FBBD
:10535000F1F000F0F006FEF7D3FA00EBC00101EB2C
:10536000001061688900B0FBF1F06421B0FBF1F03E
:1053700006EB0016FEF7C4FA00EBC00101EB0010CB
:1053800061688900B0FBF1F7FEF7BAFA00EBC001E3
:1053900001EB001061688900B0FBF1F06421B0FB03
:1053A000F1F000EBC00101EB0010A7EB800032210F
:1053B00001EB00106421B0FBF1F000F00F0030446D
:1053C00021688860BDE8F0810010014000140140B0
:1053D000014691F8390021282CD18868B0F5805F0A
:1053E0000FD10A6A1088C0F308000B68586008697A
:1053F00018B9086A801C086209E0086A401C086243
:1054000005E00B6A581C086218780B685860C88C55
:10541000401E80B2C88458B90868C06820F0800077
:105420000B68D8600868C06840F040000B68D8601E
:10543000002070470220FCE710B5034800F04AFF47
:105440000148FEF767FD10BDA001002010B502481D
:10545000FEF760FD10BD00004002002010B50348BB
:10546000FEF758FD014800F093FF10BD40030020F7
:1054700010B50248FEF74EFD10BD0000E00300200D
:1054800000BFFEE770B505460C4600260DB1022CA4
:1054900001D8002070BDA11E094802882846FCF7EB
:1054A0008FFF0646F1B2A01E285C814206D1601E25
:1054B000285CB0EB162F01D10120EBE70020E9E7D3
:1054C0001E00002070B505460C4600260DB1022CCA
:1054D00001DC002070BD601E81B2FF222846FCF76F
:1054E00089FF0646601E285CB04201D10120F1E729
:1054F0000020EFE703B401984100009850EAC12072
:1055000018BF04204A0D18BF40F0010040F2FF729E
:10551000B2EB515F08BF40F00200012808BF052030
:1055200002B0704702480068C0F3022070470000D4
:105530000CED00E010B5002804DB0A07130E054A45
:10554000135406E00A07140E034A00F00F031B1F52
:10555000D45410BD00E400E018ED00E000000000AD
:1055600010B52F499FED2C1B2DED020B84B0059833
:1055700020F000408842D8BF9DED040B2DDD294965
:10558000884209D1049840B94FF0010000F020FD95
:1055900000F0EEFC06B010BD05DB9DED040B00F045
:1055A000DBFC06B010BD68469DED040B00F0ECF886
:1055B00010F0030004BF9DED021B9DED000B0CD00D
:1055C00001280ED09DED021B9DED000B022817D087
:1055D000012000F029FC06B010BD00F0F1FA06B081
:1055E00010BD9DED021B9DED000B012000F01CFC89
:1055F00051EC100B81F0004106B041EC100B10BDD6
:1056000000F0DEFA51EC100B81F0004106B041ECE5
:10561000100B10BD000000000000000000000000A2
:10562000FB21E93F0000F07F2DED020B019820F0F7
:10563000004001909DED000B02B07047000000009B
:1056400010B52F499FED2C1B2DED020B84B0059852
:1056500020F000408842DCBF00209DED040B32DDCD
:105660002849884209D1049840B94FF0010000F060
:10567000AFFC00F07DFC06B010BD05DB9DED040B1A
:1056800000F06AFC06B010BD68469DED040B00F00A
:105690007BF810F0030011D0012818D09DED021BFB
:1056A0009DED000B02281AD000F08AFA51EC100B85
:1056B00081F0004106B041EC100B10BD9DED021BC6
:1056C0009DED000B012000F0AFFB06B010BD9DED7D
:1056D000021B9DED000B00F073FA06B010BD012017
:1056E00000F0A2FB51EC100B81F0004106B041EC40
:1056F000100B10BD000000000000000000000000C2
:10570000FB21E93F0000F07F00B52DED048BB0EEEA
:10571000409AF0EE609A83B051EC190BFBF7A1F8B8
:1057200041EC180B18EE100A18EE901A8DED008B54
:10573000002818BF0120084320F00040C0F17F601E
:1057400000F1E040C00F14D019EE101A19EE900AC3
:105750008DED009B002918BF0121084320F0004077
:10576000C0F17F6000F1E040C00F04BF012000F0F5
:105770002FFCB0EE480A03B0F0EE680ABDEC048BD3
:1057800000BD0000000000002DE9F14F04462DEDA2
:10579000020B2DED088B8AB09FEDE70B80ED020B1D
:1057A000139EE74826F0004585420ADC9DED120B6A
:1057B000002084ED000B0AB0BDEC088B03B0BDE8FF
:1057C000F08FE0489FEDE0AB9FEDE1BBA84247DDE5
:1057D000E14F9FEDE39B9FEDE48B9DED120B53ECAE
:1057E0001A2B51EC100B002E1CDDFAF7F1FD41ECE9
:1057F000100BBD4208D053EC1B2B51EC100BFAF7E9
:10580000E7FDC4E900010BE053EC192B51EC100B40
:10581000FAF7DEFD53EC182BFAF7DAFDC4E90001C4
:105820000120C8E7FAF733FD41EC100BBD4208D068
:1058300053EC1B2B51EC100BFAF729FDC4E90001C6
:105840000BE053EC192B51EC100BFAF720FD53EC45
:10585000182BFAF71CFDC4E900014FF0FF30AAE74E
:10586000C348A84279DB9DED120B51EC100B00F000
:105870002FFC41EC180B9FEDC00B53EC102BFAF7EB
:10588000ADFD9FEDBF1B53EC112BFAF700FDFAF7AE
:10589000A4FE0746FAF783FE41EC190B53EC1A2BD2
:1058A000FAF79CFD53EC182BFAF795FD41EC180B19
:1058B00053EC1B2B51EC190BFAF790FDDFF8C8A243
:1058C00041EC100B4FEA15580125FA4453EC102B0C
:1058D00051EC180BFAF77CFD032DC4E900013DD013
:1058E000C1F30A5005EB4511A8EB000011398142C4
:1058F00034DA0AEB051BB0EE48AA9BED000BF0EE84
:1059000068AA53EC102B51EC190BFAF767FD41EC28
:105910001B0B51EC1A0B53EC1B2BFAF759FD41EC06
:10592000180B51EC1A0B53EC182BFAF751FD53ECF2
:105930001B2BFAF74DFD9BED020B41EC1A0B53ECC0
:10594000102B51EC190BFAF749FD53EC1A2BFAF70F
:105950003FFD41EC100B6D1CB8E70EE0002EA8BF18
:105960003846BFF628AF94ED000B51EC100B81F0D8
:105970000041C4E9000178421DE7C6F3130040F47A
:10598000801EC6F30A50A0F2F530471100F01F0543
:10599000C5F12000DDF848B008900020069007907F
:1059A0000520EC467949002D07EB0002794408BF39
:1059B00051F8221009D051F8223001EB8201AB409E
:1059C0004A68089922FA01F11943A1FB0E26A1FBAE
:1059D0000B131A449A4234BF0123002303EB060839
:1059E0000CEB8003D3E901A60E448E4234BF0121A3
:1059F000002192448A4411B1924502D903E09245B4
:105A000001D2012100E00021C3E901A641444CF884
:105A10002010011EA0F10100C4DC029800F100502A
:105A2000850F0298DDE903678000DDF81480FAF73E
:105A3000B6FD41EC1A0B3046FAF7C2FD9FED541B40
:105A400053EC112BFAF7CAFC41EC1B0B3846FAF762
:105A5000B7FD9FED511B53EC112BFAF7BFFC41EC46
:105A6000180B4046FAF7ACFD9FED4D1B53EC112B84
:105A7000FAF7B4FC41EC190B51EC180B53EC192B51
:105A8000FAF705FC53EC1B2BFAF701FC53EC1A2B2D
:105A9000FAF7FDFBCDE90801002008909DED080B09
:105AA00053EC1A2B51EC100BFAF792FC53EC1B2B16
:105AB000FAF78EFC53EC182BFAF78AFC53EC192BEF
:105AC000FAF789FC9FED381B53EC112BFAF786FC93
:105AD0009FED370B41EC180B53EC102B9DED080B91
