:020000040800F2
:10000000F80C0020C1010008254900082B44000815
:100010002149000829090008F151000800000000EA
:10002000000000000000000000000000414900083E
:100030008321000800000000274900084349000808
:10004000DB010008DB010008DB010008DB01000820
:10005000DB010008DB010008DB010008DB01000810
:10006000DB010008DB010008DB010008DB01000800
:1000700049200008DB010008DB010008DB01000863
:10008000DB01000859200008DB0100083D090008D9
:100090002D090008DB010008DB010008DB01000876
:1000A000DB010008DB010008DB010008DB010008C0
:1000B000DB010008654A0008DB010008DB010008DD
:1000C000DB010008DB010008DB010008DB010008A0
:1000D000DB010008B9510008CD510008DD510008CE
:1000E000DB010008DB010008DB010008DB01000880
:1000F000DB010008DB010008DB010008DB01000870
:10010000DB010008DB010008DB010008DB0100085F
:10011000DB010008DB010008DB010008DB0100084F
:10012000DB010008DB01000869200008DB01000892
:10013000DB010008DB010008DB0100085D090008A5
:100140004D090008DB010008DB010008DB010008A5
:10015000DB010008DB010008DB010008DB0100080F
:10016000DB010008DB010008DB010008DB010008FF
:10017000DB010008DB010008DB01000800000000D3
:10018000DB010008DB010008DB010008DB010008DF
:10019000DB010008DB010008DB010008DB010008CF
:1001A0000000000000000000DB010008DFF80CD0B8
:1001B00000F0A8FB00480047715E0008F80C002022
:1001C0000648804706480047FEE7FEE7FEE7FEE7F1
:1001D000FEE7FEE7FEE7FEE7FEE7FEE7014A00086E
:1001E000AD0100082DE9F05F0546002092469B46D0
:1001F00088460646814640241BE02846414647463D
:10020000224600F078FA53465A46C01A914110D35C
:1002100011461846224600F05FFA2D1A67EB0108D6
:100220004F4622460120002100F056FA17EB000944
:100230004E41201EA4F10104DFDC484631462A4627
:100240004346BDE8F09F40EA01039B0703D009E065
:1002500008C9121F08C0042AFAD203E011F8013BB2
:1002600000F8013B521EF9D27047D2B201E000F80B
:10027000012B491EFBD270470022F6E710B513464A
:100280000A4604461946FFF7F0FF204610BD2DE947
:10029000FE4F804681EA0300C00F0C46009021F01B
:1002A000004123F00045B8EB0200A94105D24046C9
:1002B000214690461C460B46024623F00040104360
:1002C00047D0270DC7F30A00C3F30A510290401A22
:1002D000019040286BDAC3F3130040F4801B0098B0
:1002E000924620B10023D2EB030A63EB0B0B01987B
:1002F0005946C0F14002504600F0EEF906460D4660
:1003000050465946019A00F006FA10EB0800614188
:10031000002487EA115284EAE7731A4340D0009A16
:1003200062B3019A012A4FEA075215DC001B61EB08
:1003300002014FF0004202EA0752CDE90042001CE0
:1003400041F5801132462B4600F03DFA03B0BDE87E
:10035000F08F40462146F9E7001B61EB0201001CCB
:1003600041F5801300185B412018A2F5001747EBF8
:10037000030140EAD570B6196D4111E06D084FEAEE
:10038000360645EAC0754FEA0752001B61EB0201D1
:10039000001C41F5801149084FEA30000019514115
:1003A00032462B4603B0BDE8F04F00F0FDB900988F
:1003B000012240000023D0EB020263EBE0730098BF
:1003C00021464FEAE074B8EB000061EB0401E9E775
:1003D00083F000435BE781F0004158E72DE9FE4FD1
:1003E00081EA030404F0004421F0004100944FF03E
:1003F000000B23F0004350EA01045ED052EA0304EC
:100400005BD0C3F30A54C1F30A552C44A4F2F3346D
:100410000194A0FB0254C1F3130141F48011C3F312
:10042000130343F4801301FB024400FB034E840AD0
:10043000970A44EA815447EA8357A4FB0768029568
:100440008D0A05FB07854FEA932C04FB0C54270506
:10045000029D4FEA065847EA1637B5EB08056EEBE2
:10046000070C870E920E47EA811742EA8312A7FB18
:100470000201B6EB0B0164EB00042B0D43EA0C33D5
:100480005E1844EB1C50DA465146E7FB0201C5F307
:1004900013044FEA0B3343EA14534FEA0432019C2E
:1004A00043EA0603A4F10C040294009CCDE900B4D5
:1004B00000F089F903B0BDE8F08F00200146F9E7AC
:1004C0002DE9F04D81EA030404F0004B21F00045D2
:1004D00014464FF0000A23F0004150EA050220D0F4
:1004E00054EA01021DD0C5F30A570246C5F31303AF
:1004F000C1F31300C1F30A5640F4801543F480138E
:10050000A7EB0608101BD64608F2FD3873EB050072
:1005100002D308F1010801E092185B41B8F1000F25
:1005200003DA00200146BDE8F08D00204FF4801171
:10053000064684460EE0171B73EB050705D3121B16
:1005400063EB050306434CEA010C49084FEA30000F
:1005500092185B4150EA0107EDD152EA030012D034
:1005600082EA040083EA0501084305D0101BAB4171
:1005700006D20122002306E000224FF0004302E0F1
:100580006FF0010253101AEB06004CEB085110EB10
:100590000A0041EB0B01BDE8F04D00F005B90EB5C6
:1005A000C10F80EAE0700844CA07002140F23343DB
:1005B0008DE80E000A460B4600F005F903B000BDB9
:1005C0000EB540F2334102910021CDE900110A46F7
:1005D0000B4600F0F8F803B000BD70B5C1F30A5245
:1005E00001F000450024C1F3130140F2FF3341F450
:1005F00080119A4201DA002070BD40F233439A42E2
:10060000A2F2334203DC524200F075F800E0904061
:100610002C43F1D0404270BD00F0004230F0004069
:100620000AD0C10D01F56071C0F3160042EA015114
:10063000C208400711437047002001467047000080
:1006400030B5041E71F1000404DB4FF00044404259
:1006500064EB0101141E73F1000405DB1C464FF02E
:100660000043524263EB04038B4208BF824230BD19
:1006700030B5041E71F1000404DB4FF00044404229
:1006800064EB0101141E73F1000405DB1C464FF0FE
:100690000043524263EB0403994208BF904230BDCD
:1006A00001F0004330B421F0004150EA010206D0CD
:1006B0000A0DA2F56072C1F31301002A02DC30BCFE
:1006C00000207047440F44EAC104C100E01830BC68
:1006D00000EBC25000F031B8202A04DB203A00FAC7
:1006E00002F1002070479140C2F1200320FA03F389
:1006F000194390407047202A04DB203A21FA02F087
:100700000021704721FA02F3D040C2F1200291404B
:10071000084319467047202A06DBCB17203A41FAD6
:1007200002F043EAE07306E041FA02F3D040C2F17E
:10073000200291400843194670470029A8BF70471E
:10074000401C490008BF20F00100704710B4B0FA07
:1007500080FC00FA0CF050EA010404BF10BC7047A2
:1007600049B1CCF1200421FA04F411FA0CF118BFBC
:10077000012121430843A3EB0C01CB1D4FEA00618B
:100780004FEA102042BF002010BC704700EBC3505E
:1007900010440029A4BF10BC7047401C490008BF8A
:1007A00020F0010010BC704710B5141E73F1000456
:1007B00008DA401C41F1000192185B411A4301D153
:1007C00020F0010010BD2DE9F04D92469B4611B17D
:1007D000B1FA81F202E0B0FA80F220329046FFF7DF
:1007E0007BFF04460F4640EA0A0041EA0B015346EC
:1007F0005A46084313D0114653EA010019D0C8F1F4
:1008000040025046FFF777FF05460E4650465946D0
:100810004246FFF761FF084305D0012004E020466F
:100820003946BDE8F08D0020054346EAE0762C43CA
:1008300037430A986305E40AA0EB08000022FD0A8A
:1008400044EA47540A3002D500200146E9E7010591
:1008500010196941DDE9084500196941BDE8F04D0D
:10086000A2E72DE9F04D00231A461B1A8A4103DB4B
:1008700000200146BDE8F08DC1F30A52C1F3130117
:1008800041F480154FF0000BD10702D100186D41E3
:10089000521E0027044640F2FF11384601EB620A5F
:1008A0003E468046024600204FF48011FFF723FFAA
:1008B000C2197141BB1846EB0100B4EB030C75EB98
:1008C000000C04D3E41A65EB000517460E46241904
:1008D00008F101006D4180463428E3DDF91946EB4B
:1008E0000600091BA84103D24FF0FF32134601E076
:1008F000002213461BEB070046EB0A51BDE8F04D02
:10090000FFF752BF064C074D06E0E06840F00103D8
:1009100094E8070098471034AC42F6D3FFF74AFC3E
:10092000206600084066000800BFFEE710B50248D8
:1009300001F09DFE10BD00001C01002010B5024812
:1009400001F095FE10BD00001C01002010B502480A
:1009500001F08DFE10BD00004401002010B50248DA
:1009600001F085FE10BD00004401002010B500F02C
:100970000BF800F043F800F07BF800200149087004
:1009800010BD0000EC00002000B589B001200390EC
:100990000020059006900820079016480088000A5D
:1009A0008DF80400134800788DF805001148408840
:1009B000000A8DF806000F4880788DF807000D4872
:1009C0008088000A8DF808000A4800798DF809002F
:1009D0000848C088000A8DF80A00064880798DF81A
:1009E0000B00012301AA03A9034801F044FC09B04C
:1009F00000BD0000AE0600204401002000B589B013
:100A000002200390002005900690082007901648C9
:100A10004089000A8DF804001348807A8DF805009B
:100A200011488089000A8DF806000F48007B8DF878
:100A300007000D48C089000A8DF808000A48807B2D
:100A40008DF809000848408A000A8DF80A00064817
:100A5000807C8DF80B00012301AA03A9034801F053
:100A60000AFC09B000BD0000AE06002044010020D1
:100A700000B589B003200390002005900690032064
:100A800007901448007A00F003001249497A01F0F7
:100A9000030140EAC1010F48007C00F0010041EA77
:100AA00080110C48407C41EAC010C0B28DF80400AF
:100AB0000848808A000A8DF805000648007D8DF8F8
:100AC0000600012301AA03A9034801F0D4FB09B0E1
:100AD00000BD0000AE060020440100202DE9F047D3
:100AE0002DED0C8B06460F4600249FED790A10EE83
:100AF000108A9FED770A10EE109A9FED750A10EE9E
:100B0000105A00EE106AB8EEC00A724880ED000A72
:100B100000EE107AB8EEC00A6F4880ED000A00EED1
:100B2000104AB8EEC00AB1EE400A9FED6C1AC0EE52
:100B3000010A9FED6B0A20EE800A10EE105A6948F8
:100B400090ED000A6848D0ED000A30EE200A10EE61
:100B5000108A664890ED000A6548D0ED000A30EE34
:100B6000200A10EE109A2846FFF756FD41EC1D0BA7
:100B7000B0EE4D0AF0EE6D0A04F01AFCB0EE40BA89
:100B8000F0EE60BA4846FFF747FD41EC1C0B53EC12
:100B90001B2BFFF723FC41EC190B2846FFF73CFD0C
:100BA00041EC1D0BB0EE4D0AF0EE6D0A04F090FB27
:100BB000B0EE40BAF0EE60BA4046FFF72DFD41ECD2
:100BC0001C0B53EC1B2BFFF709FC41EC1A0B53ECED
:100BD000192BFFF7FDFB41EC180BFFF761FD4549B1
:100BE00008602846FFF718FD41EC1D0BB0EE4D0ADA
:100BF000F0EE6D0A04F06CFBB0EE40BAF0EE60BAB5
:100C00004846FFF709FD41EC1C0B53EC1B2BFFF78B
:100C1000E5FB41EC180B2846FFF7FEFC41EC1D0BF1
:100C2000B0EE4D0AF0EE6D0A04F0C2FBB0EE40BA31
:100C3000F0EE60BA4046FFF7EFFC41EC1C0B53ECC2
:100C40001B2BFFF7CBFB41EC1A0B53EC182BFFF7D8
:100C50001EFB41EC190BFFF723FD274908602748CD
:100C6000008820B101280DD002282CD11BE04FF6BE
:100C70007C402349088000202249087001201F4938
:100C8000088020E04FF47C401D49088000201D4969
:100C9000087014F52F7F05DA02201849088001201A
:100CA000184908700FE04FF4806015490880002053
:100CB00014490870B4F52F7F04DD01200F49088026
:100CC0001049087000BF00BFBDEC0C8BBDE8F08779
:100CD00000000000300000207000002000000046EE
:100CE000560EC9405C000020580000206000002023
:100CF00064000020780000207C000020B400002068
:100D0000B8000020B60000209FED180A184880EDBA
:100D1000000A9FED180A80ED010A9FED170A80ED89
:100D2000020A9FED120A80ED030A9FED120A80ED80
:100D3000040A9FED110A80ED050A9FED0C0A80ED73
:100D4000060A9FED0C0A80ED070A9FED0B0A80ED65
:100D5000080A9FED060A80ED090A9FED060A80ED5C
:100D60000A0A9FED050A80ED0B0A7047CDCCCC3FF7
:100D700010060020CDCCCC3D000000009FED0A0AFB
:100D80000A4880ED000A9FED080A094880ED000A34
:100D90009FED050A074880ED000A9FED030A06480B
:100DA00080ED000A704700000000000038000020BD
:100DB000780000207C0000208000002010B51D4835
:100DC000007810B1012833D102E000F0FAFE2FE0E4
:100DD0001948408AC0F3402010B901201749087013
:100DE0001548408AC0F3402098B114480078012883
:100DF0000FD100201149087011480078401C10499B
:100E00000870087800EBD0714910A0EB41010C4A42
:100E100011700B48007840B101200A4908709621F2
:100E200042F22830FFF75AFE02E000200149087024
:100E300000BF10BD74000020AE060020A4000020FA
:100E4000A50000207500002000B52DED108B85B0A9
:100E5000B7EE000AB0EE408AFB48407A022803D180
:100E60000120FA49087002E00020F84908709FED5F
:100E7000F80AF84880ED000A9FEDF70AF74880ED80
:100E8000000AF248007800287ED1EF48B0F900004F
:100E900000EB8000400000EE900AF8EEE00AB0EEB1
:100EA000600AEE4890ED001AD0ED000AF1EE600AFB
:100EB00004F057FFEA4880ED000A0068FFF7ACFB3A
:100EC00041EC1A0BB0EE4A0AF0EE6A0A04F064FA3A
:100ED000B0EE409AF0EE609A9FEDE20B53EC102BCF
:100EE00051EC190BFFF7C4FB79D2DC4890ED000AF6
:100EF00020EE000A10EE101A0846FFF78DFB41ECB9
:100F0000190BD7480068FFF787FB41EC1F0BB0EEC9
:100F10004F0AF0EE6F0A04F03FFAB0EE40DAF0EE5E
:100F200060DACE480068FFF777FB41EC1E0B53EC0C
:100F30001D2BFFF74DFA41EC1C0B9FEDCA0B53EC38
:100F4000102BFFF7A4F941EC1B0BC5480068FFF715
:100F500063FB41EC1F0BB0EE4F0AF0EE6F0A04F09A
:100F60001BFAB0EE40DAF0EE60DABC480068FFF73A
:100F700053FB41EC1E0B53EC1D2BFFF729FA41EC00
:100F80001C0B9FEDB80B00E06EE053EC102BFFF74D
:100F90007EF953EC1B2BCDE900019DED000B51ECCC
:100FA000100BFFF71BFA41EC1A0B53EC192BFFF750
:100FB00087FACDE902019DED020B51EC100BFFF712
:100FC0006FFB08EE100AB7EE001ADFEDA80AB0EECC
:100FD000480A04F0C6FEB0EE408A04E0FFE7B7EE30
:100FE000000AB0EE408A9B48D0ED001A61EE881AE4
:100FF000B0EE611AD0ED001AF1EE611A61EE881AB6
:10100000F0EE610A9048B0F90600C0EBC000400065
:1010100001EE900AF8EEE11AB0EE610A04F0A1FECA
:10102000934880ED000A8B48D0ED001A61EE881AD3
:10103000B0EE611AD0ED001AF1EE611A61EE881A75
:10104000F0EE610A8048B0F90400C0EBC000400037
:1010500001EE900AF8EEE11AB0EE610A04F081FEAA
:10106000844880ED000AEAE0784800780128FAD147
:1010700001F0A6F880490880804890ED000A0846F3
:10108000B0F9000000F0EAFE754880ED000A006843
:10109000FFF7C2FA41EC1A0BB0EE4A0AF0EE6A0A08
:1010A00004F07AF9B0EE409AF0EE609A9FED6D0B85
:1010B00053EC102B51EC190BFFF7DAFA77D2674893
:1010C00090ED000A20EE000A10EE101A0846FFF715
:1010D000A3FA41EC190B62480068FFF79DFA41EC56
:1010E0001F0BB0EE4F0AF0EE6F0A04F055F9B0EEA8
:1010F00040DAF0EE60DA59480068FFF78DFA41EC0B
:101100001E0B53EC1D2BFFF763F941EC1C0B9FEDFD
:10111000550B53EC102BFFF7BAF841EC1A0B504863
:101120000068FFF779FA41EC1F0BB0EE4F0AF0EEC2
:101130006F0A04F031F9B0EE40DAF0EE60DA4748B9
:101140000068FFF769FA41EC1E0B53EC1D2BFFF70B
:101150003FF941EC1C0B9FED430B53EC102BFFF7B9
:1011600096F841EC1B0B53EC1A2BFFF737F953ECB5
:10117000192BCDE900019DED000B51EC100BFFF791
:101180009FF9CDE902019DED020B51EC100BFFF729
:1011900087FA08EE100AB7EE001ADFED340AB0EE57
:1011A000480A04F0DEFDB0EE408A04E0FFE7B7EE47
:1011B000000AB0EE408A2748D0ED001A61EE881A86
:1011C000B0EE611AD0ED001AF1EE611A61EE881AE4
:1011D000F0EE610A1C48B0F9060001EE900AF8EE44
:1011E000E11A274890ED002A61EE821AB0EE610AFA
:1011F00004F0B7FD1E4880ED000A1648D0ED001A35
:1012000061EE881AB0EE611AD0ED001AF1EE611AA3
:1012100061EE881AF0EE610A0B48B0F9040001EEA5
:10122000900AF8EEE11A164890ED002A61EE821A53
:10123000B0EE610A04F095FD0E4880ED000A05B09D
:10124000BDEC108B00BD0000AE0600207500002034
:101250000000FA452800002000409C453000002096
:101260008000002000000000000089400000000015
:10127000780000207C0000208C000020440000202A
:10128000400000202DE9F0412DED0A8B05460C466B
:1012900016461F469FED2B0AB0EE408AB4F90000B7
:1012A000FFF77DF941EC1C0B9FED270B53EC102B46
:1012B000FFF794F841EC1B0BB0EE4B0AF0EE6B0A13
:1012C00004F0DAF8B0EE40AAF0EE60AA9FED1E0B33
:1012D00053EC102B51EC1A0BFFF780F841EC190B73
:1012E000FFF7DEF908EE100A012D0BD1B7EE000A68
:1012F000B4EEC08AF1EE10FA13D22088304400B266
:1013000020800EE0B5EEC08AF1EE10FA09DD2088EB
:10131000C01B00B22080B4F90000002801DA0020D0
:101320002080B7EE001ADFED070AB0EE480A04F09D
:1013300018FDB0EE408AB0EE480ABDEC0A8BBDE85D
:10134000F081000000000000333333333333C33FF8
:1013500070B52DED088B04460D46B7EE000AB0EED1
:10136000408A00EE104AB8EEC00AFE4880ED000A3E
:10137000FD490D80FD48007800287CD1FC48807C28
:1013800000F0010000B30020FA4908802046FFF772
:1013900006F941EC1B0B9FEDF80B53EC102BFFF7FC
:1013A0008FF841EC190BF6480068FFF735F941EC6E
:1013B0001A0B53EC192BFFF743F903D20120F14923
:1013C000088001E0EF490D80E948807CC0F34000CF
:1013D00000B30020EC4908806042FFF7E0F841ECE0
:1013E0001B0B9FEDE50B53EC102BFFF769F841EC5D
:1013F000190BE3480068FFF70FF941EC1A0B53ECA7
:10140000192BFFF735F903D20120DE49088001E0EE
:10141000DC490D80D648807CC0F3C00010B10020AC
:10142000DA490880D248807CC0F3800010B10020E7
:10143000D7490880CE48807CC0F3801010B10020CE
:10144000D4490880CA48807CC0F3C01010B1002085
:10145000D1490880C649897C01F001000323C949AC
:1014600009880AB2C849FFF70DFFBE48D0ED000A4F
:1014700020EE200A00E0FDE0BDEEC00A10EE100AEA
:1014800000B200EE100AB8EEC00AC44880ED000AAF
:10149000B749897CC1F340000323BA4909880AB2DD
:1014A000B449FFF7EFFEAF48D0ED000AF1EE600A55
:1014B00020EE200ABDEEC00A10EE100A00B200EEC7
:1014C000100AB8EEC00AB64880ED000AA6480088A7
:1014D000FFF776F841EC1A0B9FEDB20B53EC102B93
:1014E000FEF7EEFF41EC190BFFF777F806B2A049C3
:1014F000897CC1F3800003233246A449FFF7C2FE72
:101500009848D0ED000AF1EE600A20EE200ABDEE08
:10151000C00A10EE100A00B200EE100AB8EEC00ABF
:10152000A24880ED000A90480088FFF749F841EC96
:101530001A0B9FED9C0B53EC102BFEF7C1FF41ECF7
:10154000190BFFF74AF806B28949897CC1F3C0003C
:10155000032332468E49FFF795FE8248D0ED000AFC
:1015600020EE200ABDEEC00A10EE100A00B200EE16
:10157000100AB8EEC00A8E4880ED000A7A4800884A
:10158000FFF71EF841EC1A0B9FED860B53EC102B66
:10159000FEF796FF41EC190BFFF71FF806B27449EE
:1015A000897CC1F38010032332467B49FFF76AFE32
:1015B000DFED800A20EE200ABDEEC00A10EE100A10
:1015C00000B200EE100AB8EEC00A7B4880ED000AB7
:1015D00065480088FEF7F4FF41EC1A0B9FED710B94
:1015E00053EC102BFEF76CFF41EC190BFEF7F5FFE7
:1015F00006B25F49897CC1F3C010032332466549B6
:10160000FFF740FEDFED6D0A20EE200ABDEEC00AB6
:1016100010EE100A00B200EE100AB8EEC00A6848D8
:1016200080ED000A5E4890ED000A5C48D0ED000AAB
:1016300030EE200A20EE080A514880ED000A5B488F
:1016400090ED000A5A48D0ED000A30EE200A20EE54
:10165000080A5C4880ED000A574890ED000A584897
:10166000D0ED000A30EE200A20EE080A564880ED40
:10167000000A48E13E48807C00F0010010B10020E3
:101680003C4908803A48807CC0F3400010B10020FB
:101690003D4908803648807CC0F3800010B10020AE
:1016A0003B4908803248807CC0F3C00010B1002064
:1016B000364908802E49897C01F0010003232A491C
:1016C00009880AB23049FFF7DDFD2648D0ED000A4F
:1016D00020EE200ABDEEC00A10EE100A00B200EEA5
:1016E000100AB8EEC00A2D4880ED000A2049897C16
:1016F000C1F3400003231C4909880AB21D49FFF7C2
:10170000C1FD1848D0ED000AF1EE600A20EE200A73
:10171000BDEEC00A10EE100A00B200EE100AB8EEDC
:10172000C00A1F4880ED000A1149897CC1F380007E
:1017300003230D4909880AB21549FFF7A3FD09489B
:10174000D0ED000AF1EE600A20EE200ABDEEC00ADC
:1017500010EE100A00B200EE100AB8EEC00A1348EC
:1017600034E0000028000020480000207400002021
:10177000AE0600204E0000200000000000000440E3
:10178000780000204A0000204C000020500000207B
:101790005200002054000020560000205800002075
:1017A0005C000020000000000000F83F6000002006
:1017B0006400002000409CC56800002000409C455B
:1017C0006C0000207C0000208000002080ED000ADA
:1017D0004E49897CC1F3C00003234D4909880AB2F0
:1017E0004C49FFF74FFD4C48D0ED000A20EE200A8F
:1017F000BDEEC00A10EE100A00B200EE100AB8EEFC
:10180000C00A464880ED000A41480088FEF7D8FE2D
:1018100041EC1A0B1FED1D0B53EC102BFEF750FE85
:1018200041EC190BFEF7D9FE06B23849897CC1F3A9
:101830008010032332463A49FFF724FD5FED230A67
:1018400020EE200ABDEEC00A10EE100A00B200EE33
:10185000100AB8EEC00A334880ED000A2C48008810
:10186000FEF7AEFE41EC1A0B1FED320B53EC102BC2
:10187000FEF726FE41EC190BFEF7AFFE06B2234938
:10188000897CC1F3C010032332462749FFF7FAFCD5
:101890005FED360A20EE200ABDEEC00A10EE100AF7
:1018A00000B200EE100AB8EEC00A204880ED000A2F
:1018B0001F480078012826D01E4890ED000A1E48D7
:1018C000D0ED000A30EE200A20EE080A1B4880ED19
:1018D000000A1B4890ED000A1048D0ED000A30EED7
:1018E000200A20EE080A174880ED000A0D4890ED06
:1018F000000A0E48D0ED000A30EE200A20EE080A59
:10190000114880ED000ABDEC088B70BDAE060020CA
:101910004800002050000020280000206400002023
:101920005600002068000020540000206C000020B9
:10193000740000205C000020580000207800002087
:10194000600000207C0000208000002000B5002006
:1019500000F00AF8012000F007F8022000F004F877
:10196000032000F001F800BD00B5854901EB8001BE
:10197000D1ED000A834931F9101000EE101AB8EECB
:10198000C00A30EEC00A804901EB800181ED000AF7
:101990007E4901EB800191ED000A7B4901EB80015A
:1019A000D1ED000A30EE200A784901EB800181ED8B
:1019B000000A754901EB800191ED000A00EB40013E
:1019C000734A02EB8101D1ED000A20EE200A714931
:1019D00001EB800181ED000A6C4901EB800191ED82
:1019E000000A00EB400102EB8101D1ED010A20EE7B
:1019F000200ADFED690A20EE200A684901EB800128
:101A000081ED000A654901EB8001D1ED000AB0EEDD
:101A1000600A9FED631ADFED630A04F0A2F95F49E3
:101A200001EB800181ED000A574901EB800191ED46
:101A3000000A5D4901EB800181ED000A5A4901EB82
:101A4000800191ED000A594901EB8001D1ED000AB6
:101A500030EE600A00EB40014D4A02EB8101D1ED0E
:101A6000020A20EE200A524901EB800181ED000AB2
:101A70004D4901EB800191ED000A4C4901EB8001D9
:101A800081ED000A434901EB800191ED000A4349D1
:101A900001EB8001D1ED000A20EE200AB5EEC00A6C
:101AA000F1EE10FA33D200EB400102EB810191ED2F
:101AB000010A9FED3B1AC1EE000AB1EE040A80EE66
:101AC000801AB0EE412A00EB400102EB8101D1ED1A
:101AD000010A9FED331A81EE200AF1EE040A80EE2E
:101AE000201AB1EE410AF0EE402A284901EB8001AC
:101AF000D1ED000AB0EE600AB0EE421AF0EE620AD2
:101B000004F02FF9214901EB800181ED000A214900
:101B100001EB800191ED000A204901EB8001D1ED3C
:101B2000000A30EE200A224901EB8001D1ED000AC3
:101B300030EE200A1F4901EB800181ED000A1D49AA
:101B400001EB8001D1ED000AB0EE600A1A4991ED77
:101B5000001AD1ED000AF1EE600A04F002F915490D
:101B600001EB800181ED000A124901EB800191ED4A
:101B7000000A124901EB800181ED000A00BD00005E
:101B8000B005002084000020C0050020D005002002
:101B900010060020400600206F12033B5006002074
:101BA00000803B4500803BC5E0050020F00500209B
:101BB00060060020700600202C0000208006002017
:101BC000704710B502214FF4FA50FFF7C1FB41F204
:101BD0008830FFF7F5FF10BD00B59FED8F0A8F48E5
:101BE00080ED000A9FED8C0A8D4880ED000A9FED84
:101BF0008A0A8C4880ED000A9FED870A8A4880EDAA
:101C0000000A9FED8A0A8A4880ED000A8948D0EDD3
:101C1000000A9FED861A80EE810A8748D0ED000AFF
:101C20009FED821AC0EE811A30EE210A834890EDB2
:101C3000001ADFED831AC1EE210A794890ED001AEF
:101C400000EE810A7A48D0ED000A20EE200A7D4895
:101C500080ED000A774890ED000AF1EE400A9FED12
:101C6000731A80EE810A7448D0ED000A9FED6F1A56
:101C7000C0EE811A30EE210A704890ED001ADFEDB7
:101C8000701AC1EE210A654890ED001A10EE810A23
:101C90006748D0ED000A20EE200A6A4880ED010A6C
:101CA000644890ED000AF1EE400A9FED601A80EE64
:101CB000810A6148D0ED000A9FED5C1AC0EE811ADE
:101CC00030EE210A5D4890ED001ADFED5D1AC1EE9D
:101CD000210A544890ED001A00EE810A5448D0EDD4
:101CE000000A20EE200A574880ED020A5148D0ED44
:101CF000000A9FED4E1A80EE810A4F48D0ED000A8F
:101D00009FED4A1AC0EE811A30EE210A4B4890ED41
:101D1000001ADFED4B1AC1EE210A434890ED001A7C
:101D200010EE810A4248D0ED000A20EE200A454814
:101D300080ED030A9FED440AB0EE402AD0ED000A80
:101D4000B0EE600AB0EE421AF1EE420A04F009F871
:101D50003C4880ED000AD0ED010AB0EE600AB0EE1A
:101D6000421AF1EE420A03F0FCFF364880ED010A08
:101D7000D0ED020AB0EE600AB0EE421AF1EE420A6D
:101D800003F0EFFF2F4880ED020AD0ED030AB0EE1A
:101D9000600AB0EE421AF1EE420A03F0E2FF29486F
:101DA00080ED030A29480078042834D12548D0ED75
:101DB000000AB0EE600A9FED261ADFED260A03F056
:101DC000D0FF204880ED000AD0ED010AB0EE600A95
:101DD0009FED1F1ADFED1F0A03F0C3FF194880EDC6
:101DE000010AD0ED020AB0EE600A9FED171ADFED8E
:101DF0001A0A03F0B6FF134880ED020AD0ED030A79
:101E0000B0EE600A9FED101ADFED130A03F0A9FF90
:101E10000C4880ED030A00BD3980B540CC0000209D
:101E2000C8000020D0000020D4000020D0A218401C
:101E3000D80000207C0000207800002080000020D6
:101E4000216F5841B00500200000FA4574000020C1
:101E500000803B4500803BC50000FAC510B52DED64
:101E6000028B0446B0EE408A9FED510AF0EE408AA4
:101E700000EE104AB8EEC00A4E4802F0A1FBBDEEDB
:101E8000C00A4D4880ED000A00EE104AB8EEC00AC4
:101E900020EE080A494880ED000A9FED491ADFED5F
:101EA000490A90ED000A03F05CFF444880ED000A07
:101EB0004548006840490968401A43490860084697
:101EC000006800EB400000EE100AB8EEC00ADFED3B
:101ED0003F0A20EE200A3E4880ED000A201E01DB6A
:101EE000014600E041420A2902DC00203649086030
:101EF0009FED331ADFED330A354890ED000A03F009
:101F000030FF334880ED000A2B4800683149B1F9B1
:101F10000010401A3049086027490868002801DB92
:101F2000014600E0414223290EDD2B480068404273
:101F300000EE100AB8EEC00ADFED280A20EE200AF3
:101F4000274880ED000A04E09FED190A244880ED3F
:101F5000000A1A4890ED000A2148D0ED000A30EE40
:101F6000200AF0EE408A1F4890ED000ABDEEC00A3C
:101F700010EE102A90ED000AB1EE400ABDEEC00A44
:101F800010EE101ABDEEE80A10EE100A03F0DEFEA5
:101F900000EE100AB8EEC00AF0EE408A064800884B
:101FA00000B20C490880B0EE680ABDEC028B10BD8F
:101FB0000000000070050020E8000020BC000020A8
:101FC00000409C4500409CC5E00000206F12033B90
:101FD000C0000020DC000020E40000200000AF432F
:101FE000C400002030000020F0B589B007460C4640
:101FF00015461E464FF40070039000200590069091
:1020000008200790380A8DF80400F8B28DF8050012
:10201000200A8DF80600E0B28DF80700280A8DF836
:102020000800E8B28DF80900300A8DF80A00F0B215
:102030008DF80B00012301AA03A9024800F01BF947
:1020400009B0F0BD1C01002010B5024800F08CFE64
:1020500010BD00004C03002010B5024800F084FEC3
:1020600010BD0000AC02002010B5024800F07CFE5C
:1020700010BD0000AC01002001460878103818237C
:10208000B0FBF3F20848805CC865032A05D90868EC
:102090006FF30900001D886503E008686FF309000D
:1020A0008865886D70470000DC61000801460020EB
:1020B0008A6A8B69CBB932B1012A0DD0022A03D0CA
:1020C000032A10D10EE000BFCB6A03F08073B3F196
:1020D000807F00D1012007E0CB6AB3F1C07F00D13F
:1020E000012001E000E000BF34E08B69B3F5005F40
:1020F0001AD132B1012A07D0022A03D0032A11D102
:102100000AE000BF01200EE0CB6A03F08073B3F158
:10211000807F00D1012006E0CB6AB3F1C07F00D1FF
:10212000012000E000BF15E032B1012A05D0022AEB
:1021300004D0032A0CD103E000BF00BF012008E057
:10214000CB6A03F08073B3F1807F00D1012000E0FF
:1021500000BF00BF704730B50468246824F48024B1
:1021600005682C60046863608468402C04D10468AE
:10217000A2600468E16003E00468A1600468E260B2
:1021800030BD70477047000010B50C48406800EE45
:10219000100ABCEEC00A10EE100A81B2002003F053
:1021A0009BFE06480189012003F096FE5021022083
:1021B00003F092FE03F03EFF10BD00001307002065
:1021C00000210B480088A0F6FD70404201B2B1F535
:1021D000805F03DDA1F5005000B2704711F5805F0C
:1021E00003DA01F5005000B2F7E70846F5E7000012
:1021F0000006002030B5034613B94FF6FF7030BD1E
:1022000009E013F8014B82EA0400C0B2054D35F82D
:10221000100080EA2222081EA1F10101F1D110462E
:10222000EDE70000FE62000830B5034605E013F854
:10223000010B80EA02040448025D081EA1F10105B9
:10224000A9B2F4D1104630BDFD61000810B50246B8
:1022500092F82030012B01D0022B06D11068406982
:10226000084314686061002010BD506A40F480206B
:1022700050620120F8E7F0B504460D461E4694F87A
:10228000207020688368A86800B900E000BF012FB3
:1022900001D0022F7CD103F0806030B903F00060E0
:1022A00018B903F08050002873D0C3F301610229EC
:1022B00005D9606A40F4000060620120F0BD012091
:1022C00088403060A86860B9B5F800C0E86840EAA6
:1022D0004C5C206800F5C07000EB0110C0F800C035
:1022E0000FE0D5E901C040EACC00D5F80CC040EAC7
:1022F0000C00D4F800C00CF5C07C0CEB011CCCF831
:102300000000D5F810C0206800F5C07000EB011087
:10231000C0F804C0287D01280ED1206800F5C070E7
:1023200000EB0110406840F4807C206800F5C0702C
:1023300000EB0110C0F804C0D079000692F806C086
:1023400040EA0C4092F805C040EA0C2C10794CEAA7
:10235000000C206800F5C07000EB0110C0F80CC044
:10236000D078000692F802C040EA0C4092F801C012
:1023700040EA0C2092F800C040EA0C00D4F800C0FB
:102380000CF5C07C0CEB011CCCF80800206801E0C7
:1023900016E00FE000F5C07000EB0110006840F09F
:1023A000010C206800F5C07000EB0110C0F800C0FF
:1023B000002083E7606A40F40010606201207DE73E
:1023C000606A40F480206062012077E7F0B504463F
:1023D0000A46216894F82050012D01D0022D7ED1AB
:1023E000424901F50071086840F001000860086882
:1023F00020F47C5008600868566A40EA06200860AD
:10240000107D00F01F06012000FA06F3C86998430A
:10241000C861A1F50071D069C8B9D1F80C02984320
:10242000C1F80C02908880B2968940EA064601F510
:102430001070576940F83760108880B2168940EAFA
:10244000064601F51070576900EBC7004660D06979
:10245000012819D1D1F80C021843C1F80C02908858
:1024600080B2168840EA064601F51070576940F8B8
:102470003760908980B2168940EA064601F51070EF
:10248000576900EBC7004660906928B9D1F804028B
:102490009843C1F8040204E0D1F804021843C1F8DB
:1024A0000402106928B9D1F814029843C1F8140243
:1024B00004E0D1F814021843C1F81402106A01288C
:1024C00004D1D1F81C021843C1F81C02D1F8000253
:1024D00020F00100C1F800020020F0BDFFE7606AB3
:1024E00040F4802060620120F7E7000000640040B3
:1024F000704770B5044694F82050012D01D0022D8C
:102500007CD151B92068C06800F0030080B9606ACE
:1025100040F400106062012070BD2068006900F086
:10252000030028B9606A40F4001060620120F3E7FC
:10253000206800F5D87000EB0110006800F004007E
:102540009060906840B9206800F5D87000EB0110E9
:102550000068400D106007E0206800F5D87000EBBF
:1025600001100068C0085060206800F5D87000EBCA
:102570000110006800F002004008D060206800F5FB
:10258000D87000EB0110406800F00F001061206867
:1025900000F5D87000EB0110406800F47F40000A9D
:1025A0009061206800F5D87000EB01104068000CC5
:1025B0005061206800F5D87000EB01108068187039
:1025C000206800F5D87000EB0110806800F47F40AF
:1025D000000A5870206800F5D87000EB0110806880
:1025E00000F47F00000C9870206800F5D87000EBB4
:1025F00001108068000ED870206800E031E000F51E
:10260000D87000EB0110C0681871206800F5D87010
:1026100000EB0110C06800F47F40000A5871206888
:1026200000F5D87000EB0110C06800F47F00000CCA
:102630009871206800F5D87000EB0110C068000E9A
:10264000D87131B92068C06840F020002668F06079
:1026500005E02068006940F0200026683061002015
:102660005AE7606A40F480206062012054E72DE957
:10267000F05F04460025206846692068D0F8049081
:10268000206887682068D0F80CA02068D0F810B0C7
:102690002068D0F8188006F00100002855D007F017
:1026A0000100C0B101202168886007F0020018B164
:1026B000204600F021FB0EE007F0040010B145F4C5
:1026C000006508E007F0080010B145F4805502E00D
:1026D000204600F00FFB07F48070C8B14FF4807003
:1026E0002168886007F4007018B1204600F00EFBE6
:1026F0000EE007F4806010B145F4005508E007F4DF
:10270000006010B145F4804502E0204600F0FCFA7C
:1027100007F48030C8B14FF480302168886007F436
:10272000003018B1204600F001FB0EE007F48020D5
:1027300010B145F4004508E007F4002010B145F45D
:10274000803502E0204600F0EFFA06F0080038B1CC
:102750000AF0100020B145F4007510202168C8600F
:1027600006F0040040B10AF0080028B108202168F2
:10277000C860204600F0FAF906F0020038B120687F
:10278000C06800F0030010B1204600F0F1F906F037
:10279000400038B10BF0100020B145F480651020E6
:1027A0002168086106F0200040B10BF0080028B154
:1027B000082021680861204600F06AFA06F010003F
:1027C00038B12068006900F0030010B1204600F025
:1027D00060FA06F4003040B109F0100028B1102072
:1027E00021684860204600F055FA06F4803040B178
:1027F00009F0080028B1082021684860204600F050
:102800009DFA06F4004088B309F0040078B306F49A
:10281000807020B108F0010008B145F0010506F410
:10282000007020B108F0020008B145F0020506F47E
:10283000806020B108F0040008B145F0040506F4FA
:102840000060A0B108F0700088B108F07000402866
:1028500017D006DC10280BD020280CD0302819D136
:102860000CE0502810D0602814D110E01DE019E0D1
:1028700045F008050FE045F010050CE045F0200597
:1028800009E045F0400506E045F0800503E045F429
:10289000807500E000BF00BF2068806920F07000F4
:1028A000216888610420216848602DB1606A28434E
:1028B00060622046FFF71CFEBDE8F09F70B504463D
:1028C0000CB9012070BD94F8200010B9204600F02A
:1028D000AFF82068006820F002002168086000F06E
:1028E00021FD05460DE000F01DFD401B0A2808D91A
:1028F000606A40F400306062052084F82000012006
:10290000E0E72068406800F002000028EBD1206872
:10291000006840F001002168086000F003FD0546F2
:102920000DE000F0FFFC401B0A2808D9606A40F463
:1029300000306062052084F820000120C2E7206892
:10294000406800F001000028EBD0207E012806D16D
:102950002068006840F080002168086005E0206879
:10296000006820F0800021680860607E012806D1A0
:102970002068006840F040002168086005E0206899
:10298000006820F0400021680860A07E012806D180
:102990002068006840F020002168086005E0206899
:1029A000006820F0200021680860E07E012806D140
:1029B0002068006820F010002168086005E02068A9
:1029C000006840F0100021680860207F012806D1CF
:1029D0002068006840F008002168086005E0206871
:1029E000006820F0080021680860607F012806D197
:1029F0002068006840F004002168086005E0206855
:102A0000006820F0040021680860D4E9020108434E
:102A100021690843616908436168491E08432168C8
:102A2000C86100206062012084F82000002049E78E
:102A300010B586B00446142101A8FDF71DFC4649D7
:102A40002068884240D100BF0020009043480068C1
:102A500040F00070414908600846006800F00070CE
:102A6000009000BF00BF00BF002000903B4810381E
:102A7000006840F0080039491039086008460068CD
:102A800000F00800009000BF00BF0320019002206A
:102A9000029000200390032004900920059001A9D2
:102AA0002F4800F02BFB00220121132000F0C4FC72
:102AB000132000F0B1FC00220121142000F0BCFC26
:102AC000142000F0A9FC44E026492068884240D147
:102AD00000BF002000902148006840F080601F493E
:102AE00008600846006800F08060009000BF00BFEA
:102AF00000BF0020009019481038006840F0020024
:102B00001649103908600846006800F0020000907D
:102B100000BF00BF4FF440500190022002900020FF
:102B20000390032004900920059001A90E4800F0AD
:102B3000E5FA002205213F2000F07EFC3F2000F056
:102B40006BFC00220521402000F076FC402000F0C4
:102B500063FC06B010BD0000006400404038024035
:102B6000000C024000680040000402407047000072
:102B700070B58AB00646424886427ED101AB03AAB0
:102B800000213046FFF7B5FC0546002D70D10398B3
:102B9000A0F201200A2869D2DFE800F00506070844
:102BA00068686868373800BF00BF00BF0398401EE0
:102BB000C4B29DF805009DF8041040EA012004EB22
:102BC0004401304A02EB810188809DF807009DF89E
:102BD000061040EA012000B204EB440102EB81013F
:102BE000C8809DF809009DF8081040EA012000B255
:102BF00004EB440102EB810108819DF80A0004EB1B
:102C0000440102EB8101887230E000BF0398A0F21A
:102C10000920C4B29DF805009DF8041040EA012087
:102C200004EB4401184A02EB810188809DF80700FB
:102C30009DF8061040EA012000B204EB440102EBCB
:102C40008101C8809DF809009DF8081040EA012024
:102C500000B204EB440102EB810108819DF80A00F7
:102C600004EB440102EB8101887200BF05E0FFE73D
:102C700006480068401C054908600AB070BD0000A5
:102C80001C010020280500205805002024000020F9
:102C900070477047704770B5044694F820000128CB
:102CA00022D1022084F820002068006820F0010072
:102CB0002168086000F036FB05460DE000F032FBAD
:102CC000401B0A2808D9606A40F400306062052081
:102CD00084F82000012070BD2068406800F00100E9
:102CE0000028EBD16062F6E7606A40F40020606281
:102CF0000120F0E7704700000249884200D000BF81
:102D0000704700001C01002070470000044909685A
:102D1000491C034A11600349884200D000BF704734
:102D2000200000201C01002070470000024988425A
:102D300000D000BF704700001C0100207047014612
:102D400091F83500022803D08020486501207047A3
:102D5000052081F835000868006820F001000A6845
:102D600010600020F3E70000F8B504460020009052
:102D70008C4800684FF41651B0FBF1F7A56D2E6832
:102D800094F85C1008208840304098B120680068B2
:102D900000F0040070B12068006820F00400216891
:102DA000086094F85C1008208840A860606D40F0CE
:102DB0000100606594F85C1001208840304068B1E3
:102DC0002068406900F0800040B194F85C10012058
:102DD0008840A860606D40F00200606594F85C1067
:102DE00004208840304068B12068006800F002008C
:102DF00040B194F85C1004208840A860606D40F0F9
:102E00000400606594F85C1010208840304078B36E
:102E10002068006800F0080050B394F85C1010209F
:102E20008840A8602068006800F4802080B1206895
:102E3000006800F4002028B9206CC8B12046216C3D
:102E4000884715E0A06C98B12046A16C88470FE038
:102E50002068006800F4807028B92068006820F0BD
:102E6000080021680860206C10B12046216C88475A
:102E700094F85C10202088403040002865D02068FD
:102E8000006800F0100000285FD094F85C1020204B
:102E90008840A86094F83500052828D1206800688B
:102EA00020F01600216808602068406920F080004A
:102EB00021684861206C08B9A06C28B120680068BE
:102EC00020F008002168086094F85C103F208840DA
:102ED000A86000BF002084F8340000BF012084F8FF
:102EE0003500206D10B12046216D8847F8BD20685F
:102EF000006800F4802080B12068006800F40020A1
:102F000028B9606C10B12046616C88471DE0E06B09
:102F1000D8B12046E16B884717E02068006800F4CC
:102F2000807068B92068006820F01000216808608F
:102F300000BF002084F8340000BF012084F8350071
:102F4000E06B10B12046E16B8847606D38B3606D6F
:102F500000F00100F0B1052084F835002068006819
:102F600020F001002168086000BF0098401C00901C
:102F7000B84200D905E02068006800F00100002890
:102F8000F3D100BF00BF002084F8340000BF01204F
:102F900084F83500E06C10B12046E16C884700BF32
:102FA000A4E700001C0000202DE9F04104460025A4
:102FB00000F0B8F9074614B90120BDE8F081606A55
:102FC00000B100BF00BF002084F8340000BF022021
:102FD00084F835002068006820F00100216808604E
:102FE0000AE000F09FF9C01B052805D92020606584
:102FF000032084F83500E0E72068006800F0010055
:103000000028EED12068056821480540D4E9010177
:103010000843E16808432169084361690843A169DD
:103020000843E1690843216A08430543606A0428AC
:1030300003D1D4E90B0108430543206805602068EB
:10304000456925F00705606A0543606A04280DD1CB
:10305000A06A0543E06A48B12046FFF727F828B187
:1030600040206065012084F83500A6E720684561AE
:103070002046FFF701F8064694F85C103F20884090
:10308000B06000206065012084F83500002094E7DE
:103090003F8010F02DE9F04104460D4616461F46CC
:1030A0004FF0000800BF94F83400012802D102203C
:1030B000BDE8F081012084F8340000BF94F83500A9
:1030C000012811D1022084F83500002060653B46BC
:1030D000324629462046FFF73EF82068006840F057
:1030E00001002168086006E000BF002084F8340079
:1030F00000BF4FF002084046DAE70000F8B502468C
:103100000B460025002400200021E6E0012606FAF7
:1031100001F51E6806EA0504AC4273D15E68022E12
:1031200002D05E68122E13D1CF0802F1200656F8A5
:1031300027004E07F70E0F26BE40B0434F07FF0E85
:103140001E69BE403043CF0802F1200646F8270032
:1031500010684F000326BE40B0431E7906F00306F8
:103160004F00BE40304310605E68012E08D05E689C
:10317000022E05D05E68112E02D05E68122E13D189
:1031800090684F000326BE40B0434F00DE68BE404B
:1031900030439060506801268E40B0431E79C6F3DC
:1031A00000168E4030435060D0684F000326BE406A
:1031B000B0434F009E68BE403043D0605E6806F06A
:1031C0008056B6F1805FA8D100BF00260096454E1C
:1031D000366846F48046434F3E603E46366806F405
:1031E0008046009600BF00BF3F4E8F0856F827006C
:1031F0008E07370F0F26BE40B0433C4EB24202D17D
:1032000000262EE068E03A4EB24201D1012628E0C5
:10321000384EB24201D1022623E0374EB24201D1EC
:1032200003261EE0354EB24201D1042619E0344E89
:10323000B24201D1052614E0324EB24201D1062637
:103240000FE0314EB24201D107260AE02F4EB242C2
:1032500001D1082605E02E4EB24201D1092600E038
:103260000A268F073F0FBE4030431F4E8F0846F897
:103270002700284E3068A0435E6806F48036B6F515
:10328000803F00D12043234E3060361D3068A0437C
:103290005E6806F40036B6F5003F00D120431D4EAF
:1032A000361D3060361D3068A0435E6806F4801617
:1032B000B6F5801F00D12043164E08363060361D0B
:1032C0003068A0435E6806F40016B6F5001F00D112
:1032D0002043104E0C363060491C1029FFF416AF05
:1032E000F8BD0000443802400838014000000240A8
:1032F0000004024000080240000C0240001002409E
:103300000014024000180240001C0240002002404D
:1033100000240240003C01400AB1816101E00B043D
:10332000836170470148006870470000100000206A
:103330000348006803490978084401490860704758
:10334000100000201800002010B50D48006840F45F
:1033500000700B4908600846006840F4806008600F
:103360000846006840F480700860032000F0A2F86E
:10337000002000F007F800F02BF8002010BD00003E
:10338000003C024070B504460E4800784FF47A7154
:10339000B1FBF0F00C490968B1FBF0F5284600F0EC
:1033A000FFFB08B1012070BD102C07D2002221467E
:1033B000501E00F041F80548046001E00120F2E7EA
:1033C0000020F0E7180000201C000020140000205E
:1033D00008B500BF002000900E48006840F480400F
:1033E0000C4908600846006800F48040009000BF67
:1033F00000BF00BF00200090081F006840F0805010
:10340000091F08600846006800F08050009000BF67
:1034100000BF08BD4438024001460846002809DBC9
:1034200000F01F0301229A4043099B0003F1E023AF
:10343000C3F8002100BF70472DE9F05F80460D46BC
:103440001646002701F026FF074639462A4633462E
:1034500001F00700C0F1070ABAF1040F02D94FF0DA
:10346000040A01E0C0F1070AD14600F1040ABAF1EA
:10347000070F02D24FF0000A01E0A0F1030AD44680
:103480004FF0010A0AFA09FAAAF1010A0AEA020A45
:103490000AFA0CFA4FF0010B0BFA0CFBABF1010B23
:1034A0000BEA030B4AEA0B042146404601F0FAFE00
:1034B000BDE8F09F00BF00F00702064B19684FF609
:1034C000FF031940044B0B4343EA0221014B1960EF
:1034D00000BF70470CED00E00000FA0570B504462F
:1034E0000D460CB9012070BD5848006800F00F006F
:1034F000A84209D255490D700846006800F00F0037
:10350000A84201D00120EEE7207800F00200022856
:103510001DD1207800F00400042805D14C48006833
:1035200040F4E0504A490860207800F0080008287C
:1035300005D14748006840F4604045490860444868
:10354000006820F0F000A168084341490860207835
:1035500000F00100A8B36068012807D13C48083892
:103560000068C0F34040B8B90120BCE76068022899
:1035700002D06068032807D1354808380068C0F3D6
:10358000406048B90120AEE7314808380068C0F310
:10359000400008B90120A6E72D48006820F003008C
:1035A000616808432A490860FFF7BCFE064609E047
:1035B000FFF7B8FE801B41F28831884202D9032010
:1035C00091E707E02248006800F00C006168B0EB6A
:1035D000810FEDD11D48006800F00F00A84209D905
:1035E0001A490D700846006800F00F00A84201D08B
:1035F000012078E7207800F00400042807D114485F
:10360000006820F4E050E168084311490860207820
:1036100000F00800082808D10D48006820F4604038
:10362000216940EAC1000A49086000F03DF80849F4
:103630000968C1F30311074A515CC8400649086094
:103640000020FFF79FFE00204DE70000003C0240F5
:1036500008380240E46100081C00002001480068AE
:10366000704700001C00002000B5FFF7F7FF044979
:103670000968C1F38221034A515CC84000BD0000C3
:1036800008380240F461000800B5FFF7E7FF04497D
:103690000968C1F34231034A515CC84000BD0000D3
:1036A00008380240F46100082DE9F04700240025A5
:1036B0000026A1462548006800F00C0020B104282F
:1036C00005D008283AD105E0DFF8849039E0DFF82A
:1036D000849036E01D48001F006800F03F041B483E
:1036E000001F006800F4800078B11A481749091FCC
:1036F0000968C1F38811A0FB01700146224600232E
:103700003846FCF76FFD05460EE011480F49091FCA
:103710000968C1F38811A0FB01700146224600230D
:103720003846FCF75FFD05460848001F0068C0F3F7
:103730000140401C4600B5FBF6F902E0DFF81090AE
:1037400000BF00BF4846BDE8F087000008380240CF
:103750000024F400001BB700F8B504460CB90120A2
:10376000F8BD207800F00100002874D0F948006806
:1037700000F00C0004280DD0F648006800F00C00A2
:10378000082813D1F348001F006800F48000B0F54A
:10379000800F0BD1EF4808380068C0F34040002884
:1037A00059D06068002856D10120D9E700BF606871
:1037B000B0F5803F08D1E7480838006840F4803011
:1037C000E449083908601EE06068B0F5A02F0DD10B
:1037D000E0480838006840F48020DE490839086075
:1037E0000846006840F4803008600CE0D94808388A
:1037F000006820F48030D74908390860084600681E
:1038000020F48020086000BF606890B1FFF78AFD57
:10381000054606E0FFF786FD401B642801D903201A
:103820009EE7CC4808380068C0F340400028F1D03B
:1038300011E0FFF777FD054606E0FFF773FD401B3B
:10384000642801D903208BE7C24808380068C0F318
:1038500040400028F1D1207800F0020002285FD11A
:10386000BC48006800F00C0058B1BA48006800F08D
:103870000C0008281CD1B748001F006800F4800025
:10388000B0B9B44808380068C0F3400020B1E0681F
:10389000012801D0012063E7AE480838006820F015
:1038A000F800216940EAC100AA490839086037E0F8
:1038B000E06800B30120A8490860FFF733FD054622
:1038C00006E0FFF72FFD401B022801D9032047E740
:1038D000A04808380068C0F340000028F1D09D4897
:1038E0000838006820F0F800216940EAC1009949D1
:1038F0000839086014E0002097490860FFF712FDBE
:10390000054606E0FFF70EFD401B022801D9032003
:1039100026E7904808380068C0F340000028F1D13D
:10392000207800F0080008282CD16069A8B1012097
:103930008A490860FFF7F6FC054606E0FFF7F2FC4F
:10394000401B022801D903200AE782486C30006836
:10395000C0F340000028F1D014E000207F49086047
:10396000FFF7E0FC054606E0FFF7DCFC401B022801
:1039700001D90320F4E677486C300068C0F34000BA
:103980000028F1D1207800F00400042870D100262E
:1039900070483830006800F0805090B900BF0020B7
:1039A00000906C483830006840F0805069493831E8
:1039B00008600846006800F08050009000BF00BF1B
:1039C00001266748006800F48070B0B96448006858
:1039D00040F4807062490860FFF7A4FC054606E0E9
:1039E000FFF7A0FC401B022801D90320B8E65C4881
:1039F000006800F480700028F2D000BFA0680128A1
:103A000008D154486830006840F0010051496831DD
:103A100008601DE0A06805280DD14E486830006898
:103A200040F004004B49683108600846006840F0E7
:103A3000010008600CE047486830006820F0010091
:103A40004449683108600846006820F004000860B6
:103A500000BFA068A8B1FFF765FC054609E0FFF7C5
:103A600061FC401B41F28831884202D9032077E68D
:103A700026E0384868300068C0F340000028EED0E7
:103A800013E0FFF74FFC054608E0FFF74BFC401B37
:103A900041F28831884201D9032061E62D4868301F
:103AA0000068C0F340000028EFD1012E07D129485B
:103AB0003830006820F0805026493831086000BF57
:103AC000A069B8B32348006800F00C0008285ED055
:103AD000A069022846D100201F490866FFF722FC92
:103AE000054606E0FFF71EFC401B022801D9032013
:103AF00036E6184808380068C0F340600028F1D165
:103B0000D4E907010843616A40EA81110122A06AF1
:103B1000C2EB500041EA00412C20005D41EA006008
:103B20000C49091F086001200B490866FFF7FAFBE2
:103B3000054607E02DE0FFF7F5FB401B022801D901
:103B400003200DE6034808380068C0F340600028F1
:103B5000F1D01EE00838024000004742800E474284
:103B60000070004000200C490866FFF7DBFB0546AB
:103B700006E0FFF7D7FB401B022801D90320EFE541
:103B800006480068C0F340600028F2D101E001203F
:103B9000E6E50020E4E5000000004742003802406E
:103BA00070B504462546681EB0F1807F01D3012020
:103BB0000FE0681E4FF0E02148610F214FF0FF3009
:103BC00001F070FB00204FF0E021886107200861C0
:103BD000002070BD7047704710B504460CB9012035
:103BE00010BD94F83D0028B9002084F83C00204620
:103BF00000F00CF8022084F83D00211D206800F040
:103C000039FF012084F83D000020E9E738B504467B
:103C10000E492068884217D100BF002000900C4850
:103C2000006840F002000A4908600846006800F099
:103C30000200009000BF00BF002203211D20FFF7FB
:103C4000FBFB1D20FFF7E8FB38BD0000000400402F
:103C50004038024001460868C06840F001000B6827
:103C6000D8600868806800F00702062A05D0086856
:103C7000006840F001000B68186000207047704732
:103C800010B5044620680069C0F34000D8B1206830
:103C9000C068C0F34000B0B16FF002002168086155
:103CA000012020772068806900F0030018B12046C9
:103CB000FFF7E5FF05E0204600F0ADF8204600F0F4
:103CC000ABF80020207720680069C0F38000D8B1ED
:103CD0002068C068C0F38000B0B16FF004002168B4
:103CE0000861022020772068806900F4407018B1D4
:103CF0002046FFF7C4FF05E0204600F08CF8204680
:103D000000F08AF80020207720680069C0F3C00026
:103D1000D8B12068C068C0F3C000B0B16FF008002F
:103D200021680861042020772068C06900F0030042
:103D300018B12046FFF7A3FF05E0204600F06BF81E
:103D4000204600F069F80020207720680069C0F361
:103D50000010D8B12068C068C0F30010B0B16FF097
:103D6000100021680861082020772068C06900F4ED
:103D7000407018B12046FFF782FF05E0204600F0B2
:103D80004AF8204600F048F80020207720680069B3
:103D900000F0010058B12068C06800F0010030B1A7
:103DA0006FF0010021680861204600F037F82068B4
:103DB0000069C0F3C01058B12068C068C0F3C010DB
:103DC00030B16FF08000216808612046FFF702FFE4
:103DD00020680069C0F3801058B12068C068C0F343
:103DE000801030B16FF0400021680861204600F07B
:103DF00029F820680069C0F3401058B12068C068F5
:103E0000C0F3401030B16FF02000216808612046F7
:103E1000FFF7E1FE10BD7047704700000749884278
:103E20000BD107490968491C054A11601146096808
:103E3000B1F57A7F01D1002111607047C4060020DE
:103E400008000020704770472DE9F04704462068BD
:103E500005682068C668206847694FF00008C146B9
:103E600005F00F08B8F1000F0AD105F0200038B1B5
:103E700006F0200020B1204600F02DFFBDE8F087BD
:103E8000B8F1000F6ED007F0010018B906F4907079
:103E9000002867D005F0010030B106F4807018B139
:103EA000E06B40F00100E06305F0040030B107F082
:103EB000010018B1E06B40F00200E06305F0020081
:103EC00030B107F0010018B1E06B40F00400E0638E
:103ED00005F0080030B107F0010018B1E06B40F0C8
:103EE0000800E063E06B70B305F0200028B106F035
:103EF000200010B1204600F0EEFE20684069C0F3BB
:103F00008019E06B00F0080010B9B9F1000F23D060
:103F1000204600F07BFE2068406900F04000402809
:103F200016D12068406920F0400021684861606B2C
:103F300050B11748616B0865606BFEF700FF10B168
:103F4000606B016D88470CE02046FFF77CFF08E0BE
:103F50002046FFF778FF04E02046FFF774FF0020BB
:103F6000E0638BE705F0800030B106F0800018B107
:103F7000204601F0B7F881E705F0400030B106F0C7
:103F8000400018B1204600F051FE77E700BF75E70A
:103F9000F94B000810B504460CB9012010BDA0690A
:103FA00000B100E000BF94F8390028B9002084F87F
:103FB0003800204600F028F8242084F839002068D2
:103FC000C06820F400502168C860204600F0D6FE8A
:103FD0002068006920F490402168086120684069E9
:103FE00020F02A00216848612068C06840F4005031
:103FF0002168C8600020E063202084F8390084F83C
:104000003A000020CAE7000010B586B0044614212B
:1040100001A8FCF731F9C0492068884259D100BF96
:1040200000200090BD48006840F01000BB490860C7
:104030000846006800F01000009000BF00BF00BFFD
:1040400000200090B5481438006840F00200B349E1
:10405000143908600846006800F00200009000BFB4
:1040600000BFC02001900220029001200390032095
:1040700004900720059001A9A948FFF73FF8A94837
:10408000A94908604FF0006048600021A64881609F
:10409000C1604FF4806101610021416181614FF491
:1040A0008071C1614902016200214162FEF77CFF1B
:1040B00008B1FEF767F800BF9B486063846300BFE8
:1040C000002202212520FFF7B7F92520FFF7A4F9E8
:1040D0001FE19649206888425BD100BF0020009014
:1040E0008E48001F006840F480208C49091F08603A
:1040F0000846006800F48020009000BF00BF00BFA9
:104100000020009085481438006840F0080083497A
:10411000143908600846006800F00800009000BFED
:1041200000BF4FF4407001900220029001200390E4
:10413000032004900720059001A97D48FEF7DEFFCB
:104140007C487D4908604FF00060486000217A4853
:104150008160C1604FF48061016100214161816132
:104160004FF48071C161002101624162FEF71CFFC2
:1041700008B1FEF707F800BF6F486063846300BFB3
:10418000002211462720FFF757F92720FFF744F9AF
:10419000BFE06A49206888425CD100BF00200090DF
:1041A0005E48001F006840F400305C49091F086049
:1041B0000846006800F40030009000BF00BF00BF58
:1041C0000020009055481438006840F0080053491A
:1041D000143908600846006800F00800009000BF2D
:1041E00000BF602001900220029001200390032074
:1041F00004900720059001A94D48FEF77FFF4D4828
:1042000078304F4908604FF00060486040214C48CA
:1042100081600021C1604FF4806101610021416132
:104220008161C1614FF40031016200214162FEF7FA
:10423000BBFE08B1FDF7A6FF00BF414820638463C1
:1042400000BF002205212620FFF7F6F82620FFF701
:10425000E3F85EE03B49206888425AD100BF002065
:1042600000902E48006840F020002C490860084665
:10427000006800F02000009000BF00BF00BF0020D9
:10428000009026481438006840F040002349143953
:1042900008600846006800F04000009000BF00BFC2
:1042A0004FF48440019002200290012003900320EB
:1042B00004900820059001A92348FEF71FFF194824
:1042C0001838224908608005486000211F48816035
:1042D000C1604FF4806101610021416181614FF44F
:1042E0008071C1614FF44031016200214162FEF7EB
:1042F0005BFE08B1FDF746FF00BF144860638463AE
:1043000000BF002202214720FFF796F84720FFF761
:1043100083F806B010BD0000001001404438024090
:104320000004024040640240AC010020004800400C
:10433000000C0240286002404C0300200044004072
:10434000AC0200200014014000180240EC030020E1
:1043500070472DE9F84304460D4616461F464FF0B8
:10436000000994F8390020285CD105B116B9012064
:10437000BDE8F88300BF94F83800012801D102207D
:10438000F6E7012084F8380000BF0020E063212018
:1043900084F83900FEF7C6FF8146A684E6842BE048
:1043A000E08C401EE084A068B0F5805F16D14B46DB
:1043B000002280212046009700F0C8FE08B10320AB
:1043C000D6E7A846B8F80000C0F3080021684860A6
:1043D000206908B9AD1C0FE06D1C0DE04B460022B2
:1043E00080212046009700F0B1FE08B10320BFE70E
:1043F00015F8010B21684860E08C0028D0D14B46AD
:10440000002240212046009700F0A0FE08B10320C2
:10441000AEE7202084F8390000BF002084F838007F
:1044200000BFA5E70220A3E7704700BFFEE700003A
:104430002DE9F04104460025002714B90120BDE80C
:10444000F081524821680160217901712078A52806
:104450007DD10521204600F0EDFE01287BD160785A
:1044600000F109063146204600F0C4FE012872D151
:1044700001256079A17940EA012740F20311781AF9
:104480008F4232D00DDC032F1ED004DC012F10D060
:10449000022F4CD114E0A7F20110D0B1012846D16F
:1044A0001CE0FE38052842D2DFE800F0242A30362E
:1044B0003A003748B4F807100180617A817036E01D
:1044C0003448E179017032E03348B4F807100180D4
:1044D0002DE03248D4F80710016028E03048B4F8E5
:1044E00007100180617A817021E02E48B4F807102E
:1044F00001801CE00F22E11D2B48FBF7A4FE16E013
:104500000E22E11D2948FBF79EFE10E01022E11D5E
:104510002748FBF798FE0AE02648E179017006E09B
:104520002548B4F807100180617A817000BF00BF90
:104530001648B0F80110E01D08448078A5280AD17B
:104540001249B1F80120E11D1144881C01E012E07C
:1045500001E0FFF76DFF0D48B0F80110E01D0844C1
:104560008078A52807D10949B1F80120E11D11443F
:10457000881CFFF75DFF012D03D101200F49087052
:1045800002E000200D490870284658E70901002084
:10459000F0000020F3000020F4000020F6000020CE
:1045A000FA000020FD00002004070020130700206F
:1045B00021070020FF000020000100200E01002044
:1045C000F0EE400A90ED070A90ED001A20EE010A85
:1045D00080ED010A90ED090A90ED071AD0ED051A59
:1045E00001EE210A80ED030A90ED030A90ED0A1A0C
:1045F00030EE010A90ED031AC1EE001AC0ED061A62
:1046000090ED010A90ED061AD0ED011A70EEE11A54
:1046100001EE210A80ED020A90ED060AB7EE001ABB
:1046200031EE400A90ED031A20EE010A80ED040AF3
:1046300090ED040A80ED050A90ED020A80ED000A73
:1046400090ED020A7047000010B50E480E49086050
:104650000720486000210C488160C1604FF40031A0
:104660000161C900416100210176012141760021EB
:104670008176C17601774177FEF720F908B1FDF721
:1046800081FD10BD006400401C01002010B50E48E3
:104690000E4908600720486000210C488160C16015
:1046A0004FF400310161C90041610021017601210F
:1046B000417600218176C17601774177FEF7FEF8D9
:1046C00008B1FDF75FFD10BD006800404401002007
:1046D00008B500BF002000901A48006840F4800030
:1046E000184908600846006800F48000009000BF88
:1046F00000BF00BF002000900846006840F4001092
:1047000008600846006800F40010009000BF00BF79
:10471000002211463A20FEF78FFE3A20FEF77CFE7B
:10472000002211460C20FEF787FE0C20FEF774FED7
:10473000002211461120FEF77FFE1120FEF76CFECD
:1047400008BD00003038024000B587B0142102A82F
:10475000FBF792FD00BF002001903748006840F051
:104760000200354908600846006800F00200019028
:1047700000BF00BF00BF002001900846006840F065
:10478000080008600846006800F00800019000BFBB
:1047900000BF00BF002001900846006840F0800084
:1047A00008600846006800F08000019000BF00BF6C
:1047B00000BF002001900846006840F0100008602B
:1047C0000846006800F01000019000BF00BF00BF65
:1047D000002001900846006840F02000086008466C
:1047E000006800F02000019000BF00BF0022C91443
:1047F0001248FEF791FD00224FF480411048FEF769
:104800008BFD4FF400600290012003900020049083
:10481000059002A90948FEF771FC4FF48040029010
:104820000120039000200490059002A90448FEF79F
:1048300065FC07B000BD00003038024000100240A7
:104840000014024010B509480949086040F2572099
:1048500048600021064881608B21C1600021016110
:10486000FFF7BAF90248FFF7F5F910BD0004004060
:10487000C406002010B50B480B4908600B4848607F
:10488000002109488160C1604FF480610161042109
:10489000416100218161C161FFF77CFB08B1FDF737
:1048A00071FC10BD001001406C010020A0860100C9
:1048B00010B50B480B4908604FF4E1304860002107
:1048C00008488160C16001610C2141610021816162
:1048D000C161FFF75FFB08B1FDF754FC10BD00009C
:1048E000004400400C02002010B50B480B49086042
:1048F0004FF4E1304860002108488160C1600161E7
:104900000C21416100218161C161FFF743FB08B1C6
:10491000FDF738FC10BD0000004800400C030020EB
:1049200000BFFEE77047704738B5044600940A237D
:10493000012269460148FFF70CFD38BD0C0200203A
:10494000704710B5FEF7F4FC10BD000000B593B041
:10495000302107A8FBF790FC142102A8FBF78CFC80
:1049600000BF002001902448006840F08050224998
:1049700008600846006800F08050019000BF00BF4A
:1049800000BF002001901D48006840F440401B49D2
:1049900008600846006800F44040019000BF00BF76
:1049A000012007900004089002200D9041050E910F
:1049B0000C210F914FF4A871109102211191042143
:1049C000129107A8FEF7C8FE08B1FDF7DBFB0F2028
:1049D000029002200390002004904FF4A050059014
:1049E0004FF480500690052102A8FEF777FD08B12C
:1049F000FDF7C8FB13B000BD403802400070004016
:104A00001448006840F470001249086012480068B9
:104A100040F001001049086000200F49083108608B
:104A20000D4800680D4908400B4908600C48091DF5
:104A30000860081F006820F48020091F086000201B
:104A400005490C3108604FF0006002498039086068
:104A50007047000088ED00E000380240FFFFF6FEDE
:104A60001030002410B50248FFF70AF910BD00000D
:104A7000C406002010B50268294B98420ED0B0F150
:104A8000804F0BD0274B984208D0274B984205D037
:104A9000264B984202D0264B984203D122F0700256
:104AA0004B681A431E4B984220D0B0F1804F1DD066
:104AB0001C4B98421AD01C4B984217D01B4B984263
:104AC00014D01B4B984211D01A4B98420ED01A4B5F
:104AD00098420BD0194B984208D0194B984205D0F8
:104AE000184B984202D0184B984203D122F44072DE
:104AF000CB681A4322F080034C6943EA0402026047
:104B00008B68C3620B688362054B984202D0084BE6
:104B1000984201D10B6903630123436110BD00007A
:104B2000000001400004004000080040000C00406C
:104B300000040140004001400044014000480140A1
:104B400000180040001C00400020004010B525481F
:104B5000408AC0F3402028B1FCF710F90120224917
:104B600008700BE00020204908701E48407A012898
:104B700002D1FCF723F901E0FCF766F9FDF72CF808
:104B80001A48C0881A4908801848408A488017483F
:104B9000C08B88801548408DC880FCF7D7FE154C27
:104BA00094ED030ABDEEC00A10EE104A23B2114C78
:104BB00094ED020ABDEEC00A10EE104A22B20D4C6E
:104BC00094ED010ABDEEC00A10EE104A21B2094C64
:104BD00094ED000ABDEEC00A10EE104A20B2FDF7B7
:104BE00003FA10BDAE060020740000202805002046
:104BF000840000208006002070B50546AC6B0020C4
:104C0000E085E0842046FFF71EF970BD0168C968A1
:104C100021F490710268D1600168496921F00101B5
:104C200002685161202180F83A10704710B504469F
:104C30002068C06820F040002168C860202084F807
:104C400039002046FFF7F0FB002010BD10B50446E8
:104C500005492068884206D10448FFF7E9FBC821CE
:104C60000248FBF709FB10BD004800402E08002059
:104C70002DE9F04104460D461646002794F83A7097
:104C8000202F26D105B116B90120BDE8F08100BF63
:104C900094F83800012801D10220F6E7012084F8B9
:104CA000380000BFA562A6850020E0632268111DC0
:104CB00033462A46606BFEF7EDF92068406940F004
:104CC00040002168486100BF002084F8380000BF20
:104CD000DBE70220D9E770B5044694F83A002228B1
:104CE0004AD1A068B0F5805F13D1A56A206940B9A8
:104CF00020684068C0F308002880A06A801CA06279
:104D000019E020684068C0B22880A06A401CA062F8
:104D100011E0206938B920684068C1B2A26A501C0D
:104D2000A062117007E02068406800F07F01A26A6D
:104D3000501CA0621170E08D401E80B2E085C8B9A1
:104D40002068C06820F020002168C8602068C06822
:104D500020F480702168C8602068406920F001005C
:104D600021684861202084F83A002046FFF7F0FAD5
:104D7000002070BD0020FCE70220FAE72DE9F04199
:104D800004462068006920F44050E1680843216827
:104D900008612169A068084361690843E16940EA44
:104DA00001052068C06849F20C61884328432168E6
:104DB000C8602068406920F44070A16908432168F8
:104DC0004861E069B0F5004F7ED1C449206888424F
:104DD00003D0C349206888425DD1FEF755FC00EB43
:104DE000C00101EB001061684900B0FBF1F06421E3
:104DF000B0FBF1F00601FEF747FC00EBC00101EB50
:104E0000001061684900B0FBF1F7FEF73DFC00EBD4
:104E1000C00101EB001061684900B0FBF1F06421B2
:104E2000B0FBF1F000EBC00101EB0010A7EB80003C
:104E3000322101EBC0006421B0FBF1F000F0F8007A
:104E400006EB4006FEF720FC00EBC00101EB001072
:104E500061684900B0FBF1F7FEF716FC00EBC001FA
:104E600001EB001061684900B0FBF1F06421B0FB78
:104E7000F1F000EBC00101EB0010A7EB8000322144
:104E800001EBC0006421B0FBF1F000F007003044FA
:104E90002168886020E1FEF7E7FB00EBC00101EB31
:104EA000001061684900B0FBF1F06421B0FBF1F043
:104EB0000601FEF7D9FB00EBC00101EB00106168B1
:104EC0004900B0FBF1F700E045E0FEF7CDFB00EB59
:104ED000C00101EB001061684900B0FBF1F06421F2
:104EE000B0FBF1F000EBC00101EB0010A7EB80007C
:104EF000322101EBC0006421B0FBF1F000F0F800BA
:104F000006EB4006FEF7B0FB00EBC00101EB001022
:104F100061684900B0FBF1F7FEF7A6FB00EBC001AA
:104F200001EB001061684900B0FBF1F06421B0FBB7
:104F3000F1F000EBC00101EB0010A7EB8000322183
:104F400001EBC0006421B0FBF1F000F00700304439
:104F500021688860C0E061492068884203D06049C8
:104F6000206888425CD1FEF78FFB00EBC00101EBAB
:104F7000001061688900B0FBF1F6FEF785FB00EBDD
:104F8000C00101EB001061688900B0FBF1F0642101
:104F9000B0FBF1F000EBC00101EB0010A6EB8000CC
:104FA000322101EB00106421B0FBF1F000F0F006BB
:104FB000FEF76AFB00EBC00101EB0010616889009D
:104FC000B0FBF1F06421B0FBF1F006EB0016FEF748
:104FD0005BFB00EBC00101EB001061688900B0FBD6
:104FE000F1F7FEF751FB00EBC00101EB0010616827
:104FF0008900B0FBF1F06421B0FBF1F000EBC001DF
:1050000001EB0010A7EB8000322101EB00106421BE
:10501000B0FBF1F000F00F003044216888605BE0E5
:10502000FEF722FB00EBC00101EB00106168890074
:10503000B0FBF1F6FEF718FB00EBC00101EB00102E
:1050400061688900B0FBF1F06421B0FBF1F000EB86
:10505000C00101EB0010A6EB8000322101EB001033
:105060006421B0FBF1F000F0F006FEF7FDFA00EB72
:10507000C00101EB001061688900B0FBF1F0642110
:10508000B0FBF1F006EB0016FEF7EEFA00EBC00104
:1050900001EB001061688900B0FBF1F7FEF7E4FA5C
:1050A00000EBC00101EB001061688900B0FBF1F07A
:1050B0006421B0FBF1F000EBC00101EB0010A7EBA5
:1050C0008000322101EB00106421B0FBF1F000F010
:1050D0000F00304421688860BDE8F0810010014075
:1050E00000140140014691F8390021282CD188682C
:1050F000B0F5805F0FD10A6A1088C0F308000B6812
:105100005860086918B9086A801C086209E0086AD2
:10511000401C086205E00B6A581C086218780B688E
:105120005860C88C401E80B2C88458B90868C068EE
:1051300020F080000B68D8600868C06840F040002C
:105140000B68D860002070470220FCE72DE9F04191
:1051500004460D4617469846069E21E0701CF8B19D
:105160002EB1FEF7DFF8A0EB0800B04218D9206896
:10517000C06820F4D0702168C8602068406920F0C1
:10518000010021684861202084F8390084F83A0041
:1051900000BF002084F8380000BF0320BDE8F08184
:1051A000206800682840A84201D1012000E00020CA
:1051B000B842D3D00020F1E710B5034800F084FFD7
:1051C0000148FEF741FE10BD6C01002010B50248F9
:1051D000FEF73AFE10BD00000C02002010B5034897
:1051E000FEF732FE014800F0CDFF10BD0C03002099
:1051F00000BFFEE770B505460C4600260DB1022C37
:1052000001D8002070BDA11E094802882846FCF77D
:10521000F1FF0646F1B2A01E285C814206D1601E55
:10522000285CB0EB162F01D10120EBE70020E9E765
:10523000EE00002070B505460C4600260DB1022C8C
:1052400001DC002070BD601E81B2FF222846FCF701
:10525000EBFF0646601E285CB04201D10120F1E759
:105260000020EFE703B401984100009850EAC12004
:1052700018BF04204A0D18BF40F0010040F2FF7231
:10528000B2EB515F08BF40F00200012808BF0520C3
:1052900002B0704702480068C0F302207047000067
:1052A0000CED00E010B5002804DB0A07130E054AD8
:1052B000135406E00A07140E034A00F00F031B1FE5
:1052C000D45410BD00E400E018ED00E00000000040
:1052D00010B52F499FED2C1B2DED020B84B00598C6
:1052E00020F000408842D8BF9DED040B2DDD2949F8
:1052F000884209D1049840B94FF0010000F020FD28
:1053000000F0EEFC06B010BD05DB9DED040B00F0D7
:10531000DBFC06B010BD68469DED040B00F0ECF818
:1053200010F0030004BF9DED021B9DED000B0CD09F
:1053300001280ED09DED021B9DED000B022817D019
:10534000012000F029FC06B010BD00F0F1FA06B013
:1053500010BD9DED021B9DED000B012000F01CFC1B
:1053600051EC100B81F0004106B041EC100B10BD68
:1053700000F0DEFA51EC100B81F0004106B041EC78
:10538000100B10BD00000000000000000000000035
:10539000FB21E93F0000F07F2DED020B019820F08A
:1053A000004001909DED000B02B07047000000002E
:1053B00010B52F499FED2C1B2DED020B84B00598E5
:1053C00020F000408842DCBF00209DED040B32DD60
:1053D0002849884209D1049840B94FF0010000F0F3
:1053E000AFFC00F07DFC06B010BD05DB9DED040BAD
:1053F00000F06AFC06B010BD68469DED040B00F09D
:105400007BF810F0030011D0012818D09DED021B8D
:105410009DED000B02281AD000F08AFA51EC100B17
:1054200081F0004106B041EC100B10BD9DED021B58
:105430009DED000B012000F0AFFB06B010BD9DED0F
:10544000021B9DED000B00F073FA06B010BD0120A9
:1054500000F0A2FB51EC100B81F0004106B041ECD2
:10546000100B10BD00000000000000000000000054
:10547000FB21E93F0000F07F00B52DED048BB0EE7D
:10548000409AF0EE609A83B051EC190BFBF7E9F902
:1054900041EC180B18EE100A18EE901A8DED008BE7
:1054A000002818BF0120084320F00040C0F17F60B1
:1054B00000F1E040C00F14D019EE101A19EE900A56
:1054C0008DED009B002918BF0121084320F000400A
:1054D000C0F17F6000F1E040C00F04BF012000F088
:1054E0002FFCB0EE480A03B0F0EE680ABDEC048B66
:1054F00000BD0000000000002DE9F14F04462DED35
:10550000020B2DED088B8AB09FEDE70B80ED020BAF
:10551000139EE74826F0004585420ADC9DED120BFC
:10552000002084ED000B0AB0BDEC088B03B0BDE891
:10553000F08FE0489FEDE0AB9FEDE1BBA84247DD77
:10554000E14F9FEDE39B9FEDE48B9DED120B53EC40
:105550001A2B51EC100B002E1CDDFAF739FF41EC31
:10556000100BBD4208D053EC1B2B51EC100BFAF77B
:105570002FFFC4E900010BE053EC192B51EC100B89
:10558000FAF726FF53EC182BFAF722FFC4E90001C3
:105590000120C8E7FAF77BFE41EC100BBD4208D0B2
:1055A00053EC1B2B51EC100BFAF771FEC4E9000110
:1055B0000BE053EC192B51EC100BFAF768FE53EC8F
:1055C000182BFAF764FEC4E900014FF0FF30AAE798
:1055D000C348A84279DB9DED120B51EC100B00F093
:1055E0003BFC41EC180B9FEDC00B53EC102BFAF772
:1055F000F5FE9FEDBF1B53EC112BFAF748FEFAF7AF
:10560000ECFF0746FAF7CBFF41EC190B53EC1A2BD2
:10561000FAF7E4FE53EC182BFAF7DDFE41EC180B19
:1056200053EC1B2B51EC190BFAF7D8FEDFF8C8A28C
:1056300041EC100B4FEA15580125FA4453EC102B9E
:1056400051EC180BFAF7C4FE032DC4E900013DD05C
:10565000C1F30A5005EB4511A8EB00001139814256
:1056600034DA0AEB051BB0EE48AA9BED000BF0EE16
:1056700068AA53EC102B51EC190BFAF7AFFE41EC72
:105680001B0B51EC1A0B53EC1B2BFAF7A1FE41EC50
:10569000180B51EC1A0B53EC182BFAF799FE53EC3C
:1056A0001B2BFAF795FE9BED020B41EC1A0B53EC0A
:1056B000102B51EC190BFAF791FE53EC1A2BFAF759
:1056C00087FE41EC100B6D1CB8E70EE0002EA8BF62
:1056D0003846BFF628AF94ED000B51EC100B81F06B
:1056E0000041C4E9000178421DE7C6F3130040F40D
:1056F000801EC6F30A50A0F2F530471100F01F05D6
:10570000C5F12000DDF848B0089000200690079011
:105710000520EC467949002D07EB0002794408BFCB
:1057200051F8221009D051F8223001EB8201AB4030
:105730004A68089922FA01F11943A1FB0E26A1FB40
:105740000B131A449A4234BF0123002303EB0608CB
:105750000CEB8003D3E901A60E448E4234BF012135
:10576000002192448A4411B1924502D903E0924546
:1057700001D2012100E00021C3E901A641444CF817
:105780002010011EA0F10100C4DC029800F10050BD
:10579000850F0298DDE903678000DDF81480FAF7D1
:1057A000FEFE41EC1A0B3046FAF70AFF9FED541B40
:1057B00053EC112BFAF712FE41EC1B0B3846FAF7AB
:1057C000FFFE9FED511B53EC112BFAF707FE41EC46
:1057D000180B4046FAF7F4FE9FED4D1B53EC112BCE
:1057E000FAF7FCFD41EC190B51EC180B53EC192B9B
:1057F000FAF74DFD53EC1B2BFAF749FD53EC1A2B2E
:10580000FAF745FDCDE90801002008909DED080B51
:1058100053EC1A2B51EC100BFAF7DAFD53EC1B2B5F
:10582000FAF7D6FD53EC182BFAF7D2FD53EC192BEF
:10583000FAF7D1FD9FED381B53EC112BFAF7CEFD93
:105840009FED370B41EC180B53EC102B9DED080B23
:1058500051EC100BFAF7C2FD53EC182BFAF717FDB9
:105860009FED310B41EC180B53EC102B9DED080B09
:1058700051EC100BFAF7B2FD53EC182BFAF707FDB9
:1058800041EC100B139810F0004F06D06D4251EC14
:10589000100B81F0004141EC100B284684ED000B09
:1058A00041E60000000000000000000000000000D1
:1058B000FB21E93F7CD9024000004054FB21F93F25
:1058C0003163621A61B4D03DFB21F93F0000000052
:1058D0000000601A61B4D03D7370032E8A19A33B97
:1058E000FB2139410000000083C8C96D305FE43FEF
:1058F000000000000000E03FF20E0000400E00003B
:10590000000000000000103E000000000000103CFD
:10591000000000000000103A182D4454FB21F93D0E
:105920003326A611460B113C00000054FB21F93D23
:1059300010B52DED040B2DED088B82B0B0EE419A21
:10594000F0EE619A0B9820F000449FED4BABB4F160
:10595000795F11DA9DED0A0B51EC100BFAF73DFE61
:10596000002801BFB0EE4A0AF0EE6A0A02B0BDECB0
:10597000088B04BF04B010BD9DED0A0B53EC102B37
:1059800051EC100BFAF72AFD41EC180B3C480621AC
:10599000B0EE480AF0EE680A784400F081F853EC63
:1059A000182B51EC100BFAF719FD9DED0A0B41EC89
:1059B0001B0B53EC192B51EC100BFAF70FFD41ECBC
:1059C000190B53EC1B2B51EC180BFAF707FD53EC9A
:1059D000192BFAF7FDFC9FED2C0B41EC190B53EC46
:1059E000102B51EC180BFAF7F9FC41EC100B28487E
:1059F000844210DA53EC192B51EC100BFAF7E8FC47
:105A000053EC1A2BFAF7E7FC41EC100B02B0BDEC9B
:105A1000088B04B010BD1F48A042BCBF9FED1E1BE9
:105A20008DED001B06DBA4F5001001900020009016
:105A30009DED001B51EC100B53EC112BFAF7C8FC39
:105A40009DED000B41EC180B53EC102B51EC1A0B95
:105A5000FAF7BEFC41EC1A0B53EC192B51EC180B66
:105A6000FAF7B6FC53EC1A2BFAF7B5FC41EC100B25
:105A7000CCE7000000000000000000000000F03F44
:105A8000640B000000000000000000000000E03F88
:105A90003333D33F0000E93F000000000000D23F55
:105AA00070B504462DED028B4D1E00EBC500B0EE27
:105AB000408AF0EE608A90ED000B35F0060017D0BA
:105AC00053EC182B51EC100BFAF788FC41EC100B3F
:105AD0006D1E04EBC50090ED001B51EC100B53EC58
